:100000000C948E170C94BF170C94BF170C94BF1749
:100010000C94BF170C94BF170C94BF170C94BF1708
:100020000C94BF170C94BF170C94BF170C94BF17F8
:100030000C94BF170C94BF170C94BF170C94BF17E8
:100040000C94BF170C9440420C94BF170C94BF172C
:100050000C94BF170C94BF170C944B310C9412D313
:100060000C94BF170C9448C50C94BF170C94BF1781
:100070000C94BF170C94BF170C94BF170C94BF17A8
:100080000C94BC430C94BF170C94BF170C94BF176F
:100090000C94BF170C94BF170C94BF170C94BF1788
:1000A0000C94BF170C94BF170C948E430C94BF177D
:1000B0000C94BF170C94BF170C94BF170C9460439B
:1000C0000C94BF170C94BF170C94BF170C94BF1758
:1000D0000C94BF170C94BF170C94BF170C94BF1748
:1000E0000C94BF17084AD73B3BCE016E84BCBFFDC2
:1000F000C12F3D6C74319ABD56833DDA3D00C77FF8
:1001000011BED9E4BB4C3E916BAAAABE0000008090
:100110003F05A84CCDB2D44EB93836A9020C50B91F
:10012000918688083CA6AAAA2ABE000000803F004B
:100130004E414E494E495459494E46CDCCCC3D0ACC
:10014000D7233C17B7D13877CC2B329595E6241FAF
:10015000B14F0A000020410000C84200401C462068
:10016000BCBE4CCA1B0E5AAEC59D74454550524F7D
:100170004D206461746173697A65206572726F7273
:100180002E0A00290A002062797465733B2063728D
:1001900063200053657474696E67732053746F72C3
:1001A0006564202800290A002062797465733B2069
:1001B00063726320002073746F72656420736574CA
:1001C00074696E6773207265747269657665642000
:1001D0002800202863616C63756C61746564292153
:1001E0000A0020213D2000454550524F4D204352EA
:1001F00043206D69736D61746368202D20287374CA
:100200006F7265642920002053697A653A2000499D
:100210006E6465783A2000204D61726C696E3D56BF
:100220003536290A0028454550524F4D3D00454579
:1002300050524F4D2076657273696F6E206D6973F1
:100240006D61746368200048617264636F64656403
:100250002044656661756C742053657474696E67BB
:1002600073204C6F616465640A00DC050000DC05E6
:10027000000064000000102700000000964300000A
:1002800096430000A0400000C8410000A0420000CA
:10029000A0420000C8430000BC423A0A0020286D7A
:1002A0006D290020204D383531205A005A2D5072CA
:1002B0006F6265204F6666736574002044002049B4
:1002C0000020204D333031205000504944207365C8
:1002D0007474696E67733A0A002046002042002059
:1002E000480020204D3134352053004D6174657233
:1002F00069616C2068656174757020706172616DF0
:1003000065746572733A0A00205A00204A00202062
:100310004732392057204900205A0020204D3432DE
:10032000302053004175746F20426564204C65761F
:10033000656C696E673A0A00205A00205900202037
:100340004D323036205800486F6D65206F666673F9
:1003500065743A0A00204500205A002059002058B0
:100360000020540020530020204D32303520510011
:1003700020453C6D61785F655F6A65726B3E002069
:10038000583C6D61785F785F6A65726B3E20593CBE
:100390006D61785F795F6A65726B3E205A3C6D6172
:1003A000785F7A5F6A65726B3E00416476616E6366
:1003B00065643A20513C6D696E5F7365676D656E6B
:1003C000745F74696D655F75733E20533C6D696E33
:1003D0005F66656564726174653E20543C6D696E4C
:1003E0005F74726176656C5F666565647261746581
:1003F0003E0020540020520020204D323034205046
:1004000000416363656C65726174696F6E20287565
:100410006E6974732F7332293A20503C7072696E82
:10042000745F616363656C3E20523C7265747261F7
:1004300063745F616363656C3E20543C74726176E3
:10044000656C5F616363656C3E0A00204500205A5D
:100450000020590020204D3230312058004D617865
:10046000696D756D20416363656C65726174696F58
:100470006E2028756E6974732F7332293A0A002032
:100480004500205A0020590020204D32303320589A
:10049000004D6178696D756D206665656472617483
:1004A00065732028756E6974732F73293A0A0020CA
:1004B0004500205A0020590020204D393220580094
:1004C00053746570732070657220756E69743A0A92
:1004D0000020204D3230302044300A0020204D32A0
:1004E00030302044002044697361626C65640A0006
:1004F00046696C616D656E742073657474696E67AE
:10050000733A0020204D3134392043203B20556E72
:1005100069747320696E2043656C736975730A0092
:100520002020473231202020203B005452494747A9
:1005300045524544006F70656E003A20007A5F6D49
:10054000696E00795F6D696E00785F6D696E00524B
:1005500065706F7274696E6720656E6473746F7016
:10056000207374617475730A0020746F6F206C6F50
:100570006E6720657874727573696F6E207072652E
:1005800076656E7465640A0020636F6C642065781C
:1005900074727573696F6E2070726576656E7465BE
:1005A000640A0024F4D43050C38E20C2A2401782C3
:1005B0008B7011127A910D816CD90AA861E108C77C
:1005C000586607615143061E4B5D05C145A7041AD5
:1005D000411104093D9803713931034036DB02654E
:1005E000339102D4305402802E1D02632CEE01752B
:1005F0002AC501B028A001102781018F2564012B95
:10060000244B01E0223401AC211F018D200D01801B
:100610001FFC00841EED00971DDF00B81CD200E611
:100620001BC600201BBC00641AB200B219A8000A45
:1006300019A0006A189900D117910040178B00B5D6
:1006400016840031167E00B31579003A157300C781
:10065000146F0058146A00EE1366008813630025B7
:10066000135E00C7125B006C12570015125400C1D4
:1006700011510070114F0021114B00D61049008D0F
:100680001047004610440002104200C00F40008096
:100690000F3E00420F3C00060F3B00CB0E3800938C
:1006A0000E37005C0E3500270E3400F30D3200C10A
:1006B0000D3100900D3000600D2E00320D2D000523
:1006C0000D2C00D90C2B00AE0C2900850C29005CE8
:1006D0000C2700350C27000E0C2600E80B2400C464
:1006E0000B2400A00B23007D0B23005A0B210039A3
:1006F0000B2100180B2000F80A1F00D90A1E00BBAE
:100700000A1E009D0A1D00800A1D00630A1C004786
:100710000A1B002C0A1B00110A1A00F7091A00DD37
:10072000091900C4091900AB091900920917007BC7
:10073000091800630917004C091600360916002035
:100740000916000A091500F5081500E0081400CC88
:10075000081400B8081400A4081400900813007DC1
:100760000812006B081300580812004608120034E3
:10077000081100230811001208110001081100F0EF
:10078000071000E0071000D0071000C0071000B0ED
:10079000070F00A107100091070E0083070F0074D8
:1007A000070F0065070E0057070E0049070E003BB4
:1007B000070D002E070E0020070D0013070D000681
:1007C000070D00F9060C00ED060D00E0060C00D444
:1007D000060C00C8060C00BC060C00B0060C00A4F9
:1007E000060B0099060C008D060B0082060B0077A5
:1007F000060B006C060B0061060A0057060B004C46
:10080000060A0042060A0038060A002E060A0024DC
:10081000060A001A060A001006090007060A00FD6B
:10082000050900F4050900EB050900E2050900D9F6
:10083000050900D0050900C7050900BE050900B576
:10084000050800AD050800A50509009C05080094F1
:100850000508008C050800840508007C0508007464
:100860000508006C050700650508005D05070056D2
:100870000508004E05070047050700400508003839
:10088000050700310507002A050700230507001C9E
:10089000050600160507000F0507000805060002FB
:1008A000050700FB040600F5040700EE040600E857
:1008B000040600E2040700DB040600D5040600CFAE
:1008C000040600C9040600C3040600BD040600B700
:1008D000040600B1040500AC040600A6040600A04E
:1008E0000405009B04060095040500900406008A98
:1008F00004050085040500800406007A04050075DF
:10090000040500700405006B040500660405006121
:100910000405005C04050057040500520405004D61
:1009200004050048040500430405003E0404003AA1
:1009300004050035040500300404002C04050027DC
:10094000040400230405001E0404001A0404001615
:10095000040500110404000D04040009040500044A
:1009600004040000040400FC030400F8030400F481
:10097000030400F0030400EC030400E8030400E4B3
:10098000030400E0030400DC030400D8030400D4E3
:10099000030400D0030400CC030400C8030300C513
:1009A00003030024F404D9201BC40C5C0E9804C477
:1009B000095F0265077101F405F900FB04B3004803
:1009C000048700C10369005803550003034500BEB6
:1009D000023A008402310053022A00290225000451
:1009E000022000E4011C00C8011900AF01170098A3
:1009F0000114008401130071011000610110005105
:100A0000010E0043010D0036010B002B010B0020ED
:100A1000010B00150109000C01090003010800FB8E
:100A2000000800F3000800EB000700E4000600DE09
:100A3000000600D8000600D2000600CC000500C762
:100A4000000500C2000500BD000400B9000400B5A7
:100A5000000400B1000400AD000400A9000400A5DA
:100A6000000300A20003009F0004009B0003009805
:100A70000003009500020093000300900003008D26
:100A80000002008B00030088000200860002008440
:100A9000000300810002007F0002007D0002007B55
:100AA0000002007900020077000100760002007465
:100AB00000020072000100710002006F0002006D70
:100AC0000001006C0002006A00010069000200677A
:100AD0000001006600010065000100640002006280
:100AE00000010061000100600001005F0002005D84
:100AF0000001005C0001005B0001005A0001005988
:100B00000001005800010057000100560001005587
:100B10000001005400010053000000530001005286
:100B200000010051000100500001004F0001004E83
:100B30000000004E0001004D0001004C0001004B80
:100B40000000004B0001004A00010049000100487C
:100B50000000004800010047000100460000004678
:100B60000001004500000045000100440001004371
:100B7000000000430001004200000042000100416B
:100B800000000041000100400001003F0000003F64
:100B90000001003E0000003E0001003D0000003D5D
:100BA0000001003C0000003C0000003C0001003B54
:100BB0000000003B0001003A0000003A000100394B
:100BC0000000003900010038000000380000003843
:100BD0000001003700000037000100360000003639
:100BE000000000360001003500000035000000352F
:100BF0000001003400000034000000340001003324
:100C00000000003300000033000100320000003219
:100C1000000000320001003100000031000000310E
:100C20000001003000000030000000300001002F03
:100C30000000002F0000002F0000002F0001002EF8
:100C40000000002E0000002E0001002D0000002DED
:100C50000000002D0000002D0001002C0000002CE1
:100C60000000002C0000002C0001002B0000002BD5
:100C70000000002B0000002B0001002A0000002AC9
:100C80000000002A0000002A0001002900000029BD
:100C900000000029000000290000002900010028B0
:100CA00000000028000000280000002800000028A4
:100CB0000001002700000027000000270000002797
:100CC000000000270001002600000026000000268A
:100CD000000000260000002600010025000000257D
:100CE0000000002500000025000000250000002570
:100CF0000001002400000024000000240000002463
:100D00000000002400010023000000230000002355
:100D10000000002300000023000000230000002347
:100D2000000100220000002200000022000000223A
:100D3000000000220000002200010021000000212C
:100D4000000000210000002100000021000000211F
:100D50000000002100010020000000200000002011
:100D60000000002000000020000000200000002003
:100D7000000000200001001F0000001F0000001FF5
:100D80000000001F0000001F0000001F0000001FE7
:100D90000001001E0000001E0000001E0000001EDA
:100DA000000000043700001E290000511B000058FD
:100DB00010000010090000CC04000078020000417F
:100DC0000100006265640A002C2073797374656DFC
:100DD0002073746F7070656421204865617465725A
:100DE0005F49443A20004265642068656174696E19
:100DF00067206661696C65640048656174696E6747
:100E0000206661696C6564004531204865617469DC
:100E10006E67206661696C65640048656174696E1F
:100E200067206661696C65640070012C0190012780
:100E300001B0012201C0011D01F0011801100213CF
:100E40000130020E016002090190020401C002FF9C
:100E5000000003FA004003F5008003F000D003EB2C
:100E6000002004E6007004E100E004DC004005D747
:100E700000C005D2004006CD00D006C8008007C3E0
:100E8000003008BE00F008B900C009B400B00AAFD5
:100E900000B00BAA00D00CA500000EA000500F9BC4
:100EA00000C01096005012910000148C00C01587ED
:100EB00000B0178200B0197D00D01B7800001E73AF
:100EC0000040206E0090226900F024640040275FFB
:100ED0000090295A00E02B5500102E500020304B76
:100EE0000010324600E033410090353C00103737A7
:100EF0000070383200A0392D00B03A2800A03B2302
:100F000000603C1E00103D1900903D1400103E0F83
:100F100000703E0A00C03E0500003F0000403FFB5D
:100F2000FF803FF6FFC03FF1FF4531205448455256
:100F30004D414C2052554E415741590042454420A5
:100F4000544845524D414C2052554E41574159004D
:100F5000546865726D616C2052756E6177617900BD
:100F60004531204572723A204D415854454D50004C
:100F70004572723A204D415854454D5020424544E7
:100F8000004D415854454D50207472696767657231
:100F90006564004531204572723A204D494E5445F2
:100FA0004D50004572723A204D494E54454D5020E7
:100FB000424544004D494E54454D50207472696776
:100FC0006765726564004D383420582059205A20D6
:100FD0004500202F002042403A0020403A0025756D
:100FE0003A2530327500253032753A253032750099
:100FF00025756420253032753A2530327500202061
:1010000020202020005A00590020202020005800D5
:101010000920000000000000000000000000003F68
:10102000FFF0000000000000000000000000380099
:101030007000000000000000000000000030FC30E4
:1010400000000000000000000000000020FC100074
:1010500000000000000000000000002078100000E8
:101060000000000000000000000020301000000020
:101070000000000000000000002C00D03FC0000075
:1010800000000000002082002E31D07FE000000030
:10109000000000001041002F7BD07FE00000000026
:1010A0000000001041002F7BD07FE0000000000016
:1010B00000002082002E31D03FC000000000000060
:1010C000004104002C00D03FC000000000000000E0
:1010D0008208002030107FE0000000000000008245
:1010E00008002078107FE0000000000000004104AC
:1010F0000020FC107FE000000000000000208200C3
:1011000030FC301F800000000000000000000038AC
:1011100000700F0000000000000000FFFFC03FFF54
:10112000F0060000000000000000FFFFC00000000B
:101130000000000000000000000000003FFFF00081
:1011400000000000000000000000003800700000F7
:1011500000000000000000000000318630000000A8
:1011600000000000000000000023871000000000C5
:101170000000000000000000278790000000000031
:10118000000000000000002F87D0000000000000D9
:101190000000000000002F03D03FC000000000004E
:1011A00000002082002030107FE0000000000000DE
:1011B000001041002078107FE000000000000000D7
:1011C0001041002078107FE00000000000000020A7
:1011D00082002030103FC0000000000000004104E9
:1011E000002F03D03FC00000000000000082080074
:1011F0002F87D07FE0000000000000008208002759
:1012000087907FE000000000000000410400238779
:10121000107FE000000000000000208200318630D6
:101220001F80000000000000000000003800700F68
:101230000000000000000000FFFFC03FFFF00600BC
:1012400000000000000000FFFFC000000033442049
:101250005072696E7465722052656164792E005017
:1012600072696E74696E672E2E2E005072696E74EC
:101270002070617573656400436D643A2053746F28
:101280007700436D643A204465706C6F7900436D5C
:10129000643A2053656C662D5465737400436D6425
:1012A0003A2053572D4D6F646500436D643A2052C8
:1012B00065736574004D61696E005072696E7420CB
:1012C00061626F72746564005072696E7420667238
:1012D0006F6D2053440053746F70207072696E7488
:1012E00000526573756D65207072696E74004E6F83
:1012F00020534420636172640050617573652070EF
:1013000072696E7400436F6E74726F6C0050726518
:10131000706172650054756E6500496E666F20736A
:10132000637265656E00466C6F7700466C6F770080
:1013300046616E20737065656420320046616E20E0
:10134000737065656420320046616E207370656558
:101350006420310046616E20737065656420310041
:1013600042656400426564004E6F7A7A6C65004E97
:101370006F7A7A6C650046616465204865696768C4
:10138000740046616465204865696768740053703D
:10139000656564005370656564004D61696E005059
:1013A00072656865617420504C4120456E64005040
:1013B00072656865617420504C412042656400503C
:1013C00072656865617420504C41005072657061AF
:1013D0007265005072656865617420414253204512
:1013E0006E6400507265686561742041425320420A
:1013F0006564005072656865617420414253005015
:10140000726570617265004D343238004D3238308B
:10141000205030205331363000436D643A205365FC
:101420006C662D54657374004D3238302050302076
:101430005331323000507265686561742041425307
:10144000005072656865617420504C4100436F6FB5
:101450006C646F776E00436D643A205265736574F7
:101460000044697361626C652073746570706572A5
:1014700073004D38340053657420686F6D65206FBC
:1014800066667365747300466164652048656967C4
:101490006874004661646520486569676874004F38
:1014A0006666004F6E2000426564204C6576656C70
:1014B000696E67004C6576656C2062656400473232
:1014C000380A473239004175746F20686F6D6500C6
:1014D000473238004D6F76652061786973004D6141
:1014E000696E004D6F76652058004D6F7665205906
:1014F000004D6F7665205A00457874727564657288
:10150000004D6F766520302E316D6D004D6F766524
:1015100020316D6D004D6F76652031306D6D004D61
:101520006F766520617869730045787472756465BB
:1015300072004D6F7665205A004D6F766520590018
:101540004D6F766520580045787472756465720039
:101550004D6F7665205A004D6F76652059004D6FAE
:1015600076652058005072657061726500496E6939
:101570007469616C697A6520454550524F4D00434E
:101580006F6E74726F6C00526573746F7265206653
:1015900061696C73616665004C6F6164207365748A
:1015A00074696E677300496E697469616C697A6504
:1015B00020454550524F4D0053746F72652073653E
:1015C0007474696E677300424C546F7563680046AB
:1015D000696C616D656E74004D6F74696F6E005457
:1015E000656D7065726174757265004D61696E003C
:1015F000507265686561742041425320636F6E6666
:10160000005072656865617420504C4120636F6EB4
:1016100066005049442D44005049442D440050492F
:10162000442D49005049442D49005049442D500053
:101630005049442D50002008204661637400200862
:101640002046616374002008204D61780020082046
:101650004D6178002008204D696E002008204D69FA
:101660006E004F6666004F6E20004175746F7465A2
:101670006D700046616E20737065656420320046AF
:10168000616E20737065656420320046616E207360
:101690007065656420310046616E20737065656415
:1016A00020310042656400426564004E6F7A7A6CB6
:1016B00065004E6F7A7A6C6500436F6E74726F6C62
:1016C0000053746F72652073657474696E6773007C
:1016D00042656400426564004E6F7A7A6C65004E24
:1016E0006F7A7A6C650046616E2073706565640080
:1016F00046616E2073706565640054656D70657237
:101700006174757265005654726176206D696E0061
:101710005654726176206D696E00566D696E005682
:101720006D696E00566D6178204500566D617820B8
:101730004500566D6178205A00566D6178205A0038
:10174000566D6178205900566D6178205900566DAC
:101750006178205800566D61782058004D6F74698B
:101760006F6E00416D6178204500416D61782045C4
:1017700000416D6178205A00416D6178205A004126
:101780006D6178205900416D6178205900416D618B
:1017900078205800416D6178205800412D747261A5
:1017A00076656C00412D74726176656C00412D7216
:1017B00065747261637400412D7265747261637443
:1017C00000416363656C00416363656C004D6F7439
:1017D000696F6E00434F4D4D554E49434154494F3B
:1017E0004E0044525952554E004552524F525300EA
:1017F000494E464F004543484F00656E717565750B
:1018000065696E672022004B494C4C45442E2000F0
:1018100053544F505045442E20005072696E7465E9
:10182000722073746F707065642064756520746FC6
:10183000206572726F72732E204669782074686515
:10184000206572726F7220616E6420757365204D21
:1018500039393920746F20726573746172742E2067
:101860002854656D706572617475726520697320A6
:1018700072657365742E20536574206974206166E7
:101880007465722072657374617274696E67290A77
:10189000004E6F20436865636B73756D20776974C4
:1018A00068206C696E65206E756D6265722C204CC7
:1018B000617374204C696E653A20004E6F20436856
:1018C00065636B73756D2077697468206C696E65EC
:1018D000206E756D6265722C204C617374204C69AA
:1018E0006E653A2000636865636B73756D206D6982
:1018F000736D617463682C204C617374204C696E45
:10190000653A20004C696E65204E756D62657220E7
:101910006973206E6F74204C617374204C696E651E
:10192000204E756D6265722B312C204C61737420D2
:101930004C696E653A20004D313130004D33310035
:1019400053442072656164206572726F720A0044AC
:101950006F6E65207072696E74696E672066696C5F
:10196000650A0020496E76616C696420657874723E
:101970007564657220000000000000000000000097
:10198000000000004843000048430000344342691F
:101990006C696E656172204C6576656C696E672056
:1019A000477269643A0A00486F6D696E6720666124
:1019B000696C656400202844525952554E290047ED
:1019C0003239204175746F20426564204C6576651C
:1019D0006C696E67003F20284C2C522C462C422903
:1019E000206F7574206F6620626F756E64732E0AA7
:1019F000003F2856296572626F7365206C657665B5
:101A00006C20697320696D706C61757369626C65B7
:101A10002028302D34292E0A00426164205A207675
:101A2000616C75650A004E6F2062696C696E656154
:101A30007220677269640A0044656C6574696F6E30
:101A4000206661696C65642C2046696C653A2000EB
:101A500046696C652064656C657465643A00507213
:101A60006F7465637465642050696E0A0020573A8C
:101A7000004520436F6F6C696E672E2E2E00452047
:101A800048656174696E672E2E2E0020573A004219
:101A9000656420636F6F6C696E672E2E2E00426541
:101AA000642068656174696E672E2E2E00205A3A94
:101AB0000020593A0020436F756E7420583A002078
:101AC000453A00205A3A0020593A00583A003A0064
:101AD0004361703A005741524E494E4721204C6FA6
:101AE00077205A204A65726B206D6179206C6561A0
:101AF0006420746F20756E77616E74656420706108
:101B0000757365732E0A00205A0020590058002072
:101B1000204D61783A2000205A00205900580020BA
:101B2000204D696E3A20004F6E20004F66660053CC
:101B30006F667420656E6473746F70733A20004929
:101B40006E76616C69642065787472756465720A7A
:101B50000020643A0020693A0020703A002364654E
:101B600066696E652044454641554C545F4B642080
:101B70000023646566696E652044454641554C54B2
:101B80005F4B69200023646566696E6520444546A5
:101B900041554C545F4B70200050494420417574AE
:101BA0006F74756E652066696E697368656421205F
:101BB00050757420746865206C617374204B702CB0
:101BC000204B6920616E64204B6420636F6E7374D8
:101BD000616E74732066726F6D2062656C6F772022
:101BE000696E746F20436F6E6669677572617469A0
:101BF0006F6E2E680A00504944204175746F7475E9
:101C00006E65206661696C6564212074696D656F1D
:101C100075740A00453120544845524D414C2052BC
:101C2000554E4157415900546865726D616C2052A0
:101C3000756E617761790045312048656174696E20
:101C400067206661696C65640048656174696E67E8
:101C5000206661696C656400504944204175746F69
:101C600074756E65206661696C6564212054656DCC
:101C7000706572617475726520746F6F2068696732
:101C8000680A00204B643A2000204B693A2000206B
:101C90004B703A20000A20436C61737369632050D3
:101CA0004944200A002054753A2000204B753A2000
:101CB00000206D61783A2000206D696E3A20002086
:101CC000643A200020626961733A20005049442040
:101CD0004175746F74756E652073746172740A0057
:101CE000504944204175746F74756E652066616952
:101CF0006C6564212054656D7065726174757265E0
:101D000020746F6F20686967680A00504944204159
:101D100075746F74756E65206661696C65642120E9
:101D2000426164206578747275646572206E756DA9
:101D30006265720A004F66660A0046616465204863
:101D400065696768742000426564204C6576656C3F
:101D5000696E6720004661696C656420746F206558
:101D60006E61626C6520426564204C6576656C69C5
:101D70006E670A004F666673657473206170706CDD
:101D8000696564004572723A20546F6F2066617213
:101D90002100546F6F206661722066726F6D207231
:101DA00065666572656E636520706F696E740A00A2
:101DB00047322F47332062616420706172616D6524
:101DC000746572730A00536C6565702E2E2E004880
:101DD0006F6D652058592066697273740A00486FE8
:101DE0006D6520585920666972737400205A3A2034
:101DF0000020593A200042656420583A20004D6581
:101E0000736820706F696E742063616E6E6F7420EA
:101E10006265207265736F6C7665640A00436C6955
:101E2000636B20746F20726573756D652E2E2E00A6
:101E30004E6F206D6F76652E00456E642066696C6E
:101E400065206C6973740A00426567696E20666973
:101E50006C65206C6973740A00286E6F2066696C6B
:101E600065290043757272656E742066696C653A07
:101E700020005344207072696E74696E6720627925
:101E8000746520004E6F74205344207072696E7424
:101E9000696E670A002569730025696D20256973DD
:101EA000002569682025696D20256973002569640E
:101EB000202569682025696D2025697300256979C9
:101EC00020256964202569682025696D20256973AE
:101ED000005072696E742074696D653A20006F66F7
:101EE0006600F517F017E917E217D4174445425575
:101EF000473A004B494C4C45442E20004D3131337C
:101F00002053006F6B003344205072696E74657209
:101F1000204F66662E002C20002C2000544845528D
:101F20004D414C5F50524F54454354494F4E004130
:101F300055544F5245504F52545F53445F53544190
:101F400054555300454D455247454E43595F504106
:101F50005253455200434153455F4C494748545FF3
:101F60004252494748544E45535300544F47474CFB
:101F7000455F4C494748545300534F4654574152CC
:101F8000455F504F574552004255494C445F5045BC
:101F90005243454E54004C4556454C494E475F44CC
:101FA000415441005A5F50524F4245004155544FF1
:101FB0004C4556454C005052494E545F4A4F4200E2
:101FC00050524F4752455353004155544F5245507C
:101FD0004F52545F54454D5000564F4C554D45544B
:101FE00052494300454550524F4D005345524941D7
:101FF0004C5F584F4E5F584F4646004649524D572A
:102000004152455F4E414D453A4D61726C696E20BB
:10201000312E312E39202847697468756229205382
:102020004F555243455F434F44455F55524C3A68C4
:10203000747470733A2F2F6769746875622E636FBA
:102040006D2F4D61726C696E4669726D7761726554
:102050002F4D61726C696E2050524F544F434F4C5C
:102060005F56455253494F4E3A312E30204D414331
:1020700048494E455F545950453A3344205072699F
:102080006E7465722045585452554445525F434F13
:10209000554E543A3120555549443A63656465328A
:1020A0006132662D343161322D343734382D396246
:1020B00031322D6335356336326633363766660A1C
:1020C000002F2F20004D31343520533C696E64655C
:1020D000783E206F7574206F662072616E67652090
:1020E00028302D31290A002054002052004163631A
:1020F000656C65726174696F6E3A20500020466CA1
:102100006F773A2000000136372603FFFFFF353C8A
:102110003D380EFFFFFF312E303E12FFFFFFFF283C
:10212000FF0C080907FFFF1A1C18FFFF2A08440AC2
:10213000FF4324221E2C3A200020536572766F2024
:1021400000206F7574206F662072616E67650A00EB
:10215000536572766F200043290A0061626C6564E2
:1021600020286D696E2074656D702000436F6C646B
:102170002065787472756465732061726520004E05
:102180006F2063617365206C696768740A004D6530
:10219000736820706F696E742063616E6E6F742057
:1021A0006265207265736F6C7665640A004D343227
:1021B0003120696E636F7272656374207061726141
:1021C0006D657465722075736167650A00454550D9
:1021D000524F4D204F4B0A003F5A206F7574206FAD
:1021E000662072616E676520282D323020746F2062
:1021F0003230290A003A200050726F6265205A205E
:102200004F6666736574004163746976652045782E
:102210007472756465723A2000496E76616C696407
:102220002065787472756465720A00526573656E14
:10223000643A20006F6B0020746F6F206C6F6E67C4
:1022400020657874727573696F6E2070726576653B
:102250006E7465640A0020636F6C64206578747224
:102260007573696F6E2070726576656E7465640A49
:1022700000627573793A2070617573656420666FCA
:102280007220696E7075740A00627573793A2070F5
:10229000617573656420666F7220757365720A00DC
:1022A000627573793A2070726F63657373696E67D4
:1022B0000A004B494C4C45442E20004B494C4C20C5
:1022C000636175736564206279204B494C4C2062D0
:1022D0007574746F6E2F70696E0A004B494C4C45D3
:1022E000442E20004B494C4C20636175736564207B
:1022F000627920746F6F206D75636820696E616309
:10230000746976652074696D65202D20637572721D
:10231000656E7420636F6D6D616E643A2000506C61
:1023200065617365207265736574005052494E543F
:1023300045522048414C544544005072696E7465C2
:10234000722068616C7465642E206B696C6C28293E
:102350002063616C6C6564210A00000000000000CD
:102360000000000000000000484200004842000059
:102370008040000000005761726E696E673A204825
:102380006F6D696E672042756D7020446976697360
:102390006F72203C20310A000202040000A04000BD
:1023A00000A04000000040000048430000484300F7
:1023B000003443FFFFFF7C3C3E5E2B3D3F2F5B5DC7
:1023C0003B2C2A225C004572726F7220777269740E
:1023D000696E6720746F20454550524F4D210A00A9
:1023E00056652D6A65726B0056652D6A65726B00C5
:1023F000567A2D6A65726B00567A2D6A65726B008B
:1024000056792D6A65726B0056792D6A65726B007C
:1024100056782D6A65726B0056782D6A65726B006E
:102420004D6F74696F6E004573746570732F6D6DB9
:10243000004573746570732F6D6D005A7374657009
:10244000732F6D6D005A73746570732F6D6D005925
:1024500073746570732F6D6D005973746570732F8D
:102460006D6D005873746570732F6D6D00587374C3
:102470006570732F6D6D004D6F74696F6E005374CE
:102480006570732F6D6D004A65726B004163636503
:102490006C65726174696F6E0056656C6F63697408
:1024A000790050726F6265205A204F6666736574BA
:1024B0000050726F6265205A204F66667365740023
:1024C000436F6E74726F6C0046696C2E20446961B4
:1024D0002E0046696C2E204469612E004F6666000E
:1024E0004F6E20004520696E206D6D3300436F6E86
:1024F00074726F6C0043616E6E6F7420656E7465EC
:1025000072207375626469723A2000022E2E004DAB
:1025100061696E00436172642072656D6F766564F7
:10252000004361726420696E7365727465640000B3
:10253000002100240027002A002D00300033000174
:10254000010000040107010A010000220025002803
:10255000002B002E003100340002010000050108AC
:10256000010B01000020002300260029002C002F71
:102570000032000001000003010601090105050504
:1025800005070508080808020202020A0A080804EA
:102590000404040101010101010101030303030318
:1025A000030303040707070C0C0C0C0C0C0C0C02A7
:1025B00002020206060606060606060B0B0B0B0BAE
:1025C0000B0B0B01021020200808102040102040A7
:1025D00080020102010804020101020408102040E7
:1025E0008080402010080402018004020180402005
:1025F000100804020108040201010204081020402E
:1026000080010204081020408000000A0B02090C1F
:102610000D0E080703040100000000000000000088
:1026200000000000000000000000000000000000AA
:102630000000000000121110000000000000000067
:102640000000000000000000000000000000001F6B
:10265000FFFFFFFFFFFF600000000001FF400000E0
:10266000000000FF8000000000007F83CF00000C0E
:10267000303F87FF80000C301F867980000C000FF0
:102680008C30C7838C30E78C30CFC7CC31F38C30A3
:10269000DCECEC33B98C30D86C6C33198C30D06CEA
:1026A0000C33198C30D86C0C33198C30DC6C0E3B2D
:1026B000198C30CF7C079F198C30C77C038F194051
:1026C000000000000002600000000000061FFFFF85
:1026D000FFFFFFF82020506C616E6E6572427566D8
:1026E00066657242797465733A20002046726565AA
:1026F000204D656D6F72793A2000436F6D70696C83
:1027000065643A204A756C20313620323032300A06
:1027100000207C20417574686F723A20286E6F6EBD
:10272000652C2064656661756C7420636F6E6669E4
:1027300067290A00323031382D30382D30310020F1
:102740004C61737420557064617465643A20003183
:102750002E312E390A004D61726C696E0020536F64
:102760006674776172652052657365740A0020573C
:1027700061746368646F672052657365740A002032
:1027800042726F776E206F75742052657365740A9C
:10279000002045787465726E616C205265736574B3
:1027A0000A00506F77657255700A00737461727415
:1027B0000A006175746F25692E67006572726F7209
:1027C0002077726974696E6720746F2066696C6522
:1027D0000A00456E6473746F70732025632025634F
:1027E00020256320256300205A3A0020593A002012
:1027F000583A00656E6473746F7073206869743A38
:102800002000446F6E6520736176696E672066698B
:102810006C652E0A004D3239004D3234004D323392
:1028200020257300556E6B6E6F776E20636F6D6D34
:10283000616E643A20220050726F62696E67206692
:1028400061696C65640A0050726F62696E67206628
:1028500061696C656400205A3A200020593A2000D2
:1028600042656420583A2000486F6D652025732525
:1028700073257320666972737400206669727374BD
:102880000A005A0059005800486F6D6520005344F3
:102890002063617264206F6B0A006F70656E526F07
:1028A0006F74206661696C65640A00766F6C756D83
:1028B000652E696E6974206661696C65640A0053EF
:1028C0004420696E6974206661696C0A00577269F8
:1028D00074696E6720746F2066696C653A20006FBA
:1028E00070656E206661696C65642C2046696C6554
:1028F0003A20006F70656E206661696C65642C20FB
:1029000046696C653A200046696C652073656C65A4
:10291000637465640A002053697A653A2000466949
:102920006C65206F70656E65643A20002066696C86
:10293000653A2000646F696E6700667265736800AF
:102940004E6F772000454E4420535542524F555408
:10295000494E450A002220706F7300222070617278
:10296000656E743A2200535542524F5554494E45B4
:102970002043414C4C207461726765743A22004BCD
:10298000494C4C45442E2000747279696E6720745E
:102990006F2063616C6C207375622D67636F646573
:1029A0002066696C6573207769746820746F6F2086
:1029B0006D616E79206C6576656C732E204D415883
:1029C000206C6576656C2069733A004572726F728F
:1029D0003A006F70656E206661696C65642C2046F4
:1029E000696C653A200043616E6E6F74206F70658C
:1029F0006E2073756264697220006563686F3A00C7
:102A000000060900FE0701920321207FFF07FF0750
:102A1000FF0000000600000107070602008080801A
:102A200080800080030202060105A0A005070706BA
:102A300000005050F850F8505005070706000020DD
:102A400078A07028F020050707060000C0C81020F5
:102A50004098180507070600006090A040A89068FD
:102A6000020303060104C04080030707060100209B
:102A7000408080804020030707060100804020201E
:102A800020408005050506000120A870A820050546
:102A9000050600012020F820200203030602FFC0E3
:102AA0004080050101060003F8020202060200C090
:102AB000C00505050600010810204080050707062F
:102AC0000000708888888888700307070601004026
:102AD000C040404040E005070706000070880870CD
:102AE0008080F8050707060000F81020100808F09D
:102AF00005070706000010305090F8101005070772
:102B0000060000F880F00808887005070706000036
:102B1000708080F0888870050707060000F80810AC
:102B2000202020200507070600007088887088880C
:102B3000700507070600007088887808087002058D
:102B400005060200C0C000C0C00206060602FFC0A3
:102B5000C000C040800407070600001020408040ED
:102B60002010050303060002F800F8040707060119
:102B70000080402010204080050707060000708874
:102B8000081020002005070706000070880868A8C4
:102B9000A870050707060000708888F888888805EF
:102BA0000707060000F08888F08888F00507070608
:102BB000000070888080808870050707060000F09C
:102BC0008888888888F0050707060000F88080F06C
:102BD0008080F8050707060000F88080F08080807C
:102BE000050707060000708880B888887005070709
:102BF000060000888888F888888801070706020090
:102C000080808080808080050707060000381010D3
:102C1000101090600507070600008890A0C0A090E3
:102C200088050707060000808080808080F80507FF
:102C30000706000088D8A888888888050707060046
:102C4000008888C8A898888805070706000070884B
:102C50008888888870050707060000F08888F0805B
:102C6000808005070706000070888888A89068059E
:102C70000707060000F08888F0A09088050707067F
:102C80000000788080700808F0050707060000F84B
:102C9000202020202020050707060000888888883B
:102CA0008888700507070600008888888888502073
:102CB0000507070600008888888888A85005070748
:102CC0000600008888502050888805070706000005
:102CD00088888850202020050707060000F8081083
:102CE000204080F8030707060100E0808080808094
:102CF000E0050505060001804020100803070706CF
:102D00000100E02020202020E0050303060004202D
:102D10005088050101060000F80202020602058043
:102D20004005050506000070087888780507070645
:102D300000008080B0C88888F00505050600007096
:102D40008080887005070706000008086898888852
:102D5000780505050600007088F8807005070706ED
:102D600000003048E0404040400506060600FF7085
:102D700088887808700507070600008080B0C8883A
:102D80008888010707060200800080808080800319
:102D900008080601FF200020202020A0400407078B
:102DA000060000808090A0C0A090030707060100E5
:102DB000C04040404040E0050505060000D0A8A8FE
:102DC000A8A8050505060000B0C88888880505057F
:102DD00006000070888888700506060600FFF088E7
:102DE00088F080800506060600FF78888878080845
:102DF000050505060000B0C88080800505050600B1
:102E00000070807008F00407070600004040E040B2
:102E1000404030050505060000888888986805054B
:102E200005060000888888502005050506000088F2
:102E300088A8A85005050506000088502050880580
:102E400006060600FF8888887808700505050600D4
:102E500000F8102040F803070706010020404080DA
:102E6000404020010707060200808080808080802B
:102E70000307070601008040402040408005020211
:102E8000060002689000000006000000060900FE2F
:102E9000000000000001090008FE00000508080607
:102EA000000040F0C88888987810050808060000DF
:102EB000C0F88888888888F8050505060001203054
:102EC000F830200508080600002070F82020202097
:102ED000E00509090600FF2070A8A8B888887020BE
:102EE0000509090600FFE080C0B0A82830282805A1
:102EF00009090600FFF8A88888888888A8F8050AC4
:102F00000A0600FE205050505088A8A8887003037D
:102F10000306000340A04000CCF3F7F111241FBECC
:102F2000CFEFD1E2DEBFCDBF00E00CBF13E0A0E0E9
:102F3000B2E0E2EBFBE002E00BBF02C007900D92B3
:102F4000A437B107D9F724E1A4E7B3E001C01D928B
:102F5000A83CB207E1F717E1CDE8D7E100E006C0F1
:102F600021970109802FFE010F943A05CC38D10733
:102F700080E00807A9F70E94CBF40D94C8050C94D3
:102F800000002CEA35EC47E25EE36091340A709170
:102F9000350A8091360A9091370A0F941B0360938B
:102FA000E7087093E8088093E9089093EA08089589
:102FB0002CEA35EC47E25EE36091380A7091390AF9
:102FC00080913A0A90913B0A0E946CFE6093EB0854
:102FD0007093EC088093ED089093EE08089560914B
:102FE000170270911802072E000C880B990B0E9493
:102FF0000DFE2AE037ED43E25CE30E946CFE209177
:10300000CE083091CF084091D0085091D1080E944D
:103010006CFE6093130270931402809315029093D8
:103020001602089511989091020187FD9095917074
:10303000909300010000000091E09A950000E9F7EC
:10304000119A11989091020186FD9095917090933C
:1030500000010000000091E09A950000E9F7119A44
:1030600011989091020185FD9095917090930001C7
:103070000000000091E09A950000E9F7119A11987C
:103080009091020184FD9095917090930001000051
:10309000000091E09A950000E9F7119A119890913B
:1030A000020183FD90959170909300010000000053
:1030B00091E09A950000E9F7119A11989091020118
:1030C00082FD90959170909300010000000091E0C6
:1030D0009A950000E9F7119A11989091020181FDEB
:1030E00090959170909300010000000081E0982F6E
:1030F0009A950000E9F7119A119890910201917048
:1031000090930001000000008A950000E9F7119AF1
:10311000089590916F00292F227091FF05C0909122
:103120006F009D7F90936F0034E0839FC001112456
:10313000FC01EF54F74F40815181628173818956C0
:10314000964FFC01408351836283738381E08093B7
:10315000B008222329F080916F00826080936F0075
:103160000895BC01209195093091960940919509E7
:10317000509196092417350731F481E02617370757
:1031800009F080E008959A01F1CFCF92DF92EF929B
:10319000FF928091F10B882309F457C0C090ED0B8A
:1031A000D090EE0BE090EF0BF090F00B20E030E0D1
:1031B000A901C701B6010E9407FE882309F445C092
:1031C00020E030E040E05FE3C701B6010E946CFE02
:1031D0009B01AC010E946CFE2BED3FE049E450E402
:1031E0000E946CFE9B01AC0160E070E080E89FE310
:1031F0000F941B036B017C01C092CE08D092CF08C4
:10320000E092D008F092D1086091170270911802F4
:10321000072E000C880B990B0E940DFE2AE037ED5B
:1032200043E25CE30E946CFEA70196010E946CFEE3
:103230006093130270931402809315029093160208
:10324000FF90EF90DF90CF900895C12CD12C80E8B3
:10325000E82E8FE3F82ED0CF8F929F92AF92BF923D
:10326000CF92DF92EF92FF92CF93DF93EC018090A9
:10327000C6089090C708A090C808B090C90820E080
:1032800030E0A901C501B4010E9407FE882309F4BA
:1032900054C0C880D980EA80FB80A7019601C5018F
:1032A000B4010E9407FE18160CF04CC02091A60332
:1032B0003091A7034091A8035091A903C701B6011B
:1032C0000E9407FE882331F1C092A603D092A70383
:1032D000E092A803F092A9032091A2033091A303E6
:1032E0004091A4035091A503688179818A819B81D3
:1032F0000E946CFE9B01AC0160E070E080E89FE3FF
:103300000F943E02609300027093010280930202C8
:103310009093030260910002709101028091020279
:1033200090910302DF91CF91FF90EF90DF90CF90CB
:10333000BF90AF909F908F90089560E070E080E81C
:103340009FE3F0CF60E070E0CB01ECCFCF93DF9351
:1033500080910B0C811105C080910C0C882309F41D
:1033600058C08091310965994EC0816080933109C0
:10337000909103018091310991FD47C08260809353
:103380003109809131094B9942C08B7F809331097B
:10339000C0918809C0FF0FC080914E0980FF0BC00B
:1033A0008091310980FF07C080911E0C816080935D
:1033B0001E0C80E0AEDEC1FF0FC080914E0981FF80
:1033C0000BC08091310981FF07C080911E0C826083
:1033D00080931E0C81E09DDEC2FF1BC080914E09D0
:1033E00082FF17C080910C0C882399F080913109DD
:1033F00082FF0FC080911E0C846080931E0C82E0BF
:10340000DF91CF9186CE8E7FB1CF8D7FB8CF846094
:10341000BDCFDF91CF9108950C947BD1CF92DF92F5
:10342000EF92FF92CF93C82F0E946FD16B017C0166
:1034300024EA30E74DE75FE360912E0A70912F0A8E
:103440008091300A9091310A0E9407FE87FD18C0D2
:103450008AEF90E0A0E0B0E08C0D9D1DAE1DBF1D79
:103460008093F20B9093F30BA093F40BB093F50BB6
:10347000C0934B02CF91FF90EF90DF90CF900895D3
:1034800080E090E0DC01E8CF60912A0A70912B0A7D
:1034900080912C0A90912D0A41E00C94E19FCF93EA
:1034A000DF9300D01F92CDB7DEB7882349F00E948A
:1034B000DDDE0F900F900F900F90DF91CF91089568
:1034C00088EB91E09C838B8384E190E09A838983ED
:1034D000BE016D5F7F4FCE0101960E9479CBE9CF8F
:1034E0009F92AF92BF92CF92DF92EF92FF920F9393
:1034F0001F93CF93DF935B01E9014A3009F4B2C017
:10350000453109F068C0DB011296ED91FC91F28023
:10351000C681D781809102018095827080930001DD
:1035200088E290E00197F1F7EF2CE29420EFE2229D
:1035300030E1932E9F0C48E2C42ED12C88EF72DD2F
:10354000C6010197F1F7BFE1BF1508F47BC08F2DCD
:103550008077806867DD8E2D65DDC6010197F1F704
:1035600080E860DD80E05EDDC6010197F1F78AEF5B
:1035700059DDC6010197F1F78E01005F1F4F888169
:10358000807F50DD89918295807F4CDDC017D10707
:10359000B1F7C6010197F1F7F394E0E1EE0EF910EF
:1035A000CDCF80910201827080930001D5011296E7
:1035B000CD91DC91CE010E9472D3811129C2DF919D
:1035C000CF911F910F91FF90EF90DF90CF90BF9020
:1035D000AF909F900895FB0102811381423309F45B
:1035E000D2C108F4D6C1463409F4C3C1473409F442
:1035F000C6C14B3329F589812B81D80112966C9174
:10360000129713964C91213009F419C2233009F016
:10361000E3C138EF380F582F91E0431708F490E0DA
:1036200041E0531708F040E031E0561708F430E06D
:10363000592F542B352309F0F7C1942309F0F4C115
:1036400081E0BDCF80EE8F0D8068807FEBDC8F2D19
:103650008295807FE7DCC6010197F1F780E8E2DC24
:1036600080E881CF80910101826080930101809187
:10367000020182708093000180910101816080933A
:10368000010180910201817080930001099A119AD1
:1036900080910201809582708093000188E290E021
:1036A0000197F1F788E790E0CEE9DFE0FE0131977E
:1036B000F1F70197D9F788EFB5DC08E210E0C8010F
:1036C0000197F1F780E2AEDC80E0ACDCC801019745
:1036D000F1F780E0A7DC80E8A5DCC8010197F1F7ED
:1036E00080E0A0DC80E19EDCC8010197F1F7CE010B
:1036F0000197F1F7CE010197F1F7CE010197F1F7AC
:10370000CE010197F1F7CE010197F1F7CE010197B4
:10371000F1F7CE010197F1F7CE010197F1F7CE0154
:103720000197F1F7CE010197F1F7CE010197F1F77B
:10373000CE010197F1F7CE010197F1F7CE01019784
:10374000F1F72197F1F780E26DDC80E46BDCC801D2
:103750000197F1F780E266DC80E664DCC80101973E
:10376000F1F7F12CD0E0C1E08D2F807780685ADC32
:103770008F2D58DCC8010197F1F780E853DC80E019
:1037800051DCC8010197F1F78AEF4CDCC8010197C1
:10379000F1F790E21198809102018170809300010D
:1037A000000000008C2F8A950000E9F7119A11980B
:1037B00080910201817080930001000000008C2F35
:1037C0008A950000E9F7119A1198809102018170A1
:1037D00080930001000000008C2F8A950000E9F71B
:1037E000119A11988091020181708093000100006C
:1037F00000008C2F8A950000E9F7119A11988091AA
:103800000201817080930001000000008C2F8A95D6
:103810000000E9F7119A119880910201817080935C
:103820000001000000008C2F8A950000E9F7119A32
:1038300011988091020181708093000100000000C6
:103840008C2F8A950000E9F7119A11988091020156
:10385000817080930001000000008C2F8A95000089
:10386000E9F7119A1198809102018170809300010B
:10387000000000008C2F8A950000E9F7119A11983A
:1038800080910201817080930001000000008C2F64
:103890008A950000E9F7119A1198809102018170D0
:1038A00080930001000000008C2F8A950000E9F74A
:1038B000119A11988091020181708093000100009B
:1038C00000008C2F8A950000E9F7119A11988091D9
:1038D0000201817080930001000000008C2F8A9506
:1038E0000000E9F7119A119880910201817080938C
:1038F0000001000000008C2F8A950000E9F7119A62
:1039000011988091020181708093000100000000F5
:103910008C2F8A950000E9F7119A11988091020185
:10392000817080930001000000008C2F8A950000B8
:10393000E9F7119AF8013197F1F7915009F02ACF80
:1039400088EF70DBC8010197F1F7DF5F80E1F80EC7
:10395000D03209F009CF80E065DB80EC63DBC80181
:103960000197F1F78091020182708093000181E05C
:1039700026CED80115968C91888381E020CEF8015F
:1039800081818883FACFB901C8010E945CD381E0AC
:1039900016CE443171F0473109F052CE1882F80149
:1039A00082818983858181508A8383818B8381E0B1
:1039B00006CED80115964C91159750E0440F551F2F
:1039C00070E060E016968D919C910F946005C8019F
:1039D0000E9488D381E0F3CD481708F431CE8617D2
:1039E00008F42ECEFA80E12CD12C243070F41DC0C6
:1039F000BE01C8010E945CD3898198819D0D988386
:103A00008E0D8983FF0C09F41BCEF7FEF6CFF0CFA5
:103A10004D8150E0440F551F70E060E08E819F8122
:103A20000F94600581E0CBCDFA8030E0F901E751D9
:103A3000FD4FD0802B513D4FF901E080E6CF58E09B
:103A4000580F382FE9CDDF92EF92FF920F931F931B
:103A5000CF93DF93EC01D62E1CAD0BAD7C0184E03F
:103A6000E80EF11CE98DFA8DC7011995412F480F19
:103A70002D2D602FC7010E94FDD59BAD890F8BAF07
:103A800081E090E0DF91CF911F910F91FF90EF9037
:103A9000DF9008951F93CF93DF93182FEB01FE0162
:103AA0008491219681110AC0CAE3D5E0FE01849178
:103AB0002196882331F00E941E89F8CF0E941E892A
:103AC000EECFC5E3D5E0112311F0CBE2D5E0FE0146
:103AD00084912196882319F00E941E89F8CF8AE0EC
:103AE000DF91CF911F910C941E89CF93DF93803982
:103AF0009240A1F0CBECD9E2FE0184912196811194
:103B00000AC0CBE6D1E0FE0184912196882351F0D2
:103B10000E941E89F8CF0E941E89EECF80E0DF91BF
:103B2000CF91089581E0FBCFCF92DF92EF92FF9289
:103B30000F931F93CF93DF936B017A01EC01C55B69
:103B4000D64F28813CE0389F8001399F100D112409
:103B500027FF24C0FB011182108288818F5F888338
:103B600088819801280F311D87FD3A95C901209160
:103B7000FB10F6012817190629F024F088818C30F3
:103B80000CF43CC080819181049680349C4908F4F7
:103B900075C0F60180819181049672C08881980178
:103BA000280F311D87FD3A95C9012091FB10281778
:103BB000190699F294F28881A801480F511D87FDDA
:103BC0005A95FA01EE0FFF1FE40FF51FE157FF4E64
:103BD000808186FFC2CF8881F801E80FF11D87FD43
:103BE000FA95CF01EE0FFF1FE80FF91FE157FF4EC7
:103BF000808160E08F730E948ACFAFCF80819181F6
:103C00002881A801420F511D27FD5A959A01FA01FA
:103C1000EE0FFF1FE20FF31FE157FF4E21813281AC
:103C2000820F931FF7019183808388819801280F69
:103C3000311D87FD3A95F901EE0FFF1FE20FF31FCB
:103C4000E157FF4E808186FF20C08881080F111D3B
:103C500087FD1A95F801EE0FFF1FE00FF11FE157E6
:103C6000FF4E808161E08F73DF91CF911F910F91A3
:103C7000FF90EF90DF90CF900C948ACF80E49CE986
:103C8000F701918380838FEF8883DF91CF911F911C
:103C90000F91FF90EF90DF90CF9008954F925F9239
:103CA0006F927F928F929F92AF92BF92CF92DF924C
:103CB000EF92FF92CF93DF93CDB7DEB76A970FB63F
:103CC000F894DEBF0FBECDBF9A8F898F5B014A018A
:103CD000DC01D7966D917D918D919C91DA970E9430
:103CE0000BFE6B017C01F501208131814281538102
:103CF0000E946CFE0F9405030F9488033B015C0146
:103D0000D4012D913D914D915C91C701B6010E9466
:103D10006CFE0F9405030F9488036D827E82AF8240
:103D2000B8862D813E814F81588528373105410560
:103D3000510540F428E730E040E050E02D833E8319
:103D40004F83588769837A838B839C8389819A8187
:103D5000AB81BC8188379105A105B10540F428E706
:103D600030E040E050E029833A834B835C83E98D67
:103D7000FA8DED5BFF4F80819181A281B3818987AC
:103D80009A87AB87BC87BC01CD010E940DFE2B0139
:103D90003C016D817E818F8198850E940BFE698B2D
:103DA0007A8B8B8B9C8B20E030E0A901C301B201A0
:103DB0000E9407FE882309F43BC1A7019601C701B1
:103DC000B6010E946CFE4B015C0129893A894B893E
:103DD0005C89CA01B9010E946CFE9B01AC01C5015E
:103DE000B4010F943E024B015C01A3019201C30197
:103DF000B2010F943F029B01AC01C501B4010F94C5
:103E00001B030F9405030F9488036D877E878F87AC
:103E1000988B69857A858B859C8590958095709522
:103E200061957F4F8F4F9F4F0E940DFE4B015C01AC
:103E300069817A818B819C810E940BFE69877A87D8
:103E40008B879C8720E030E0A901C501B4010E9466
:103E500007FE882309F4F0C029853A854B855C85E7
:103E6000CA01B9010E946CFE6D8B7E8B8F8B988F7F
:103E7000A7019601C701B6010E946CFE9B01AC012F
:103E80006D897E898F89988D0F943E026B017C012C
:103E9000A5019401C501B4010F943F029B01AC013F
:103EA000C701B6010F941B030F94B403A98DBA8DFB
:103EB00095968D909D90AD90BC90989775016401FA
:103EC0002D853E854F855889C21AD30AE40AF50A22
:103ED0000F948803C61AD70AE80AF90AF7FE6EC0DB
:103EE00020E030E0A901C301B2010E9407FE88234F
:103EF00009F4A6C0C501B4010E940BFE6B017C0150
:103F0000A3019201C301B2010F943F029B01AC01D6
:103F1000C701B6010E946CFE6B017C0129893A89B8
:103F20004B895C89CA01B9010E946CFE9B01AC01FE
:103F3000C701B6010F943E026B017C0129853A85C9
:103F40004B855C85CA01B9010E946CFE9B01AC01E6
:103F5000C701B6010F943F026B017C0120E030E005
:103F600040E850E4C301B2010E946CFE9B01AC0129
:103F7000C701B6010F941B030F9405036B017C016D
:103F800020E030E0A9010F94650418161CF0C12C44
:103F9000D12C7601C701B6010F9488036D877E8707
:103FA0008F87988B86169706A806B90620F48D860B
:103FB0009E86AF86B88AC12CD12C76018D859E85D0
:103FC000AF85B889E98DFA8D82A793A7A4A7B5A775
:103FD000C80ED91EEA1EFB1EDF01C6A6D7A6E0AAA0
:103FE000F1AA2D813E814F81588523AF34AF45AF73
:103FF00056AFDF9629813A814B815C812D933D93A9
:104000004D935C9313976A960FB6F894DEBF0FBE7C
:10401000CDBFDF91CF91FF90EF90DF90CF90BF9019
:10402000AF909F908F907F906F905F904F9008958A
:1040300060E070E0CB01E5CE60E070E0CB0134CF12
:1040400060E070E0CB0198CF8091290A8230B1F016
:1040500090911F11992359F080913011811104C062
:1040600083E291E10C94D1C980E391E1FBCF8130EF
:1040700041F08DE492E16FEF0C9430E18BE692E138
:10408000FACF8FE592E1F7CF8091120A8630D8F40B
:1040900096E0899FF0011124E251F64F20915402DD
:1040A00030915502318320834091C30D5091C40D4E
:1040B0006091C50D7091C60D4283538364837583EF
:1040C0008F5F8093120A08950F931F9320915402DB
:1040D000309155022817390759F10091C6081091FF
:1040E000C7082091C8083091C90800932A0A109384
:1040F0002B0A20932C0A30932D0A9093550280931B
:1041000054024093C30D5093C40D6093C50D70933A
:10411000C60D8B5A924321F41092FA0B1092120A98
:1041200082E08093640281E08093C10D1092FF0BC6
:104130001F910F91089521E02093FA0B60932E0AAE
:1041400070932F0A8093300A9093310A40E050E038
:10415000BA018091320A9091330AB6CF60E070E0E4
:1041600080E291E4E8CF60E070E080E89FE3E3CF95
:104170006DEC7CEC8CEC9DE3DECF40E050E0BA01CE
:104180008BEA92E3A1CFE091120AEE2381F0E15095
:10419000E093120A86E0E89FF0011124E251F64F05
:1041A0004281538164817581808191818DCFE5CF7A
:1041B0002F923F924F925F926F927F928F929F9237
:1041C000AF92BF92CF92DF92EF92FF920F931F9325
:1041D000CF93DF931F921F92CDB7DEB70E946ACCB8
:1041E0008091BF0D8A83482E8B5F898363E0B62E52
:1041F00076E0872E77E1972E86E0A82EA41885E03A
:10420000782E741884E0682E64183B2C341882E0F1
:10421000582E54182224239424189A8191113EC0B8
:104220008091C20D8823D1F080916402882361F0CF
:10423000642D619581E09091C20D911180E024E0A0
:104240004CE557E10E940CDF9A819F5F9A83898138
:104250008913E3CF87E08093C00D0BC08091000CE1
:10426000882311F31092000C8EDF8091C10D8823FA
:10427000D9F20F900F90DF91CF911F910F91FF9086
:10428000EF90DF90CF90BF90AF909F908F907F90F6
:104290006F905F904F903F902F9008958A8181306A
:1042A00009F047C08091C20D8130D9F0809164023D
:1042B000882351F2BF9287EE8F931F9281E08F93F4
:1042C00084E099E09F938F938EE497E19F938F937F
:1042D0002F9281E09091C20D913009F44CC080E0A2
:1042E0004AC08091000C882309F31092000C9A8137
:1042F0009093C70D1092FB0B1092FC0B1092FD0BCC
:104300001092FE0BD12CC12CE12C10ECF12E09E700
:1043100014E420E030E040E85FE364E079E085E524
:1043200097E10E9424CD8091C10D882309F4BECF6E
:10433000A0CF9A81923009F047C18091C20D82309E
:1043400019F180916402882309F47ECFBF9287EE31
:104350008F931F9291E09F9388E099E09F938F93B2
:1043600080E497E19F938F935F9281E09091C20DDB
:10437000923009F0B4CF8F930E9453DD0FB6F894BA
:10438000DEBF0FBECDBF60CF8091000C8823C9F285
:104390001092000C81E08093C70D1092FB0B1092DD
:1043A000FC0B1092FD0B1092FE0BD12CC12CE12CBA
:1043B00010ECF12E09E714E420E030E040E85FE380
:1043C00068E079E087E497E10E9424CD8091C10DF7
:1043D000882309F4B6CF4DCF8091C20D8330D9F038
:1043E00080916402882309F42FCFBF9287EE8F93C8
:1043F0001F9281E08F938CE099E09F938F9382E3EB
:1044000097E19F938F933F9281E09091C20D9330FB
:1044100009F065CFB0CF8091000C882309F310928A
:10442000000C91E09093C70D1092FB0B1092FC0BC7
:104430001092FD0B1092FE0BD12CC12CE12C10EC34
:10444000F12E09E714E420E030E040E85FE36CE09F
:1044500079E089E397E10E9424CD8091C10D882302
:1044600009F4BECF06CF8091C20D8430D9F080917F
:104470006402882309F4E8CEBF9287EE8F931F92DF
:1044800081E08F9380E199E09F938F9384E297E19D
:104490009F938F936F9281E09091C20D943009F0B9
:1044A0001ECF69CF8091000C882309F31092000C75
:1044B00091E09093C70D1092FB0B1092FC0B1092A1
:1044C000FD0B1092FE0BD12CC12CE12C10ECF12E27
:1044D00009E714E420E030E040E85FE360E179E0E0
:1044E0008BE297E10E9424CD8091C10D882309F4CD
:1044F000BECFBFCE8091C20D8530D1F080916402D5
:10450000882309F4A1CEBF9287EE8F931F921F924A
:1045100080E099E09F938F938AE197E19F938F9337
:104520007F9281E09091C20D953009F0D8CE23CFD3
:104530008091000C882311F31092000C91E090936D
:10454000C70D1092FB0B1092FC0B1092FD0B1092FA
:10455000FE0BD12CC12CE12C10ECF12E09E714E458
:1045600020E030E0A90160E079E08FE197E10E946E
:1045700024CD8091C10D882309F27BCE8091000C5F
:10458000882399F11092000C91E09093C70D10923E
:10459000FB0B1092FC0B1092FD0B1092FE0BD12C1A
:1045A000C12CE12C10ECF12E09E714E420E030E0FE
:1045B000A9016CEF78E080E197E10E9424CD809121
:1045C000C10D882391F055CE9A81933009F404CF20
:1045D000943009F448CF953009F48CCF963009F027
:1045E00033CE8091C20D863049F2809164028823D7
:1045F00009F42ACEBF9287EE8F931F921F928CEF01
:1046000098E09F938F939F928F92AF9281E09091C9
:10461000C20D963009F063CEAECE2F923F924F92EC
:104620005F926F927F928F929F92AF92BF92CF9242
:10463000DF92EF92FF920F931F93CF93DF9300D0FF
:104640001F92CDB7DEB70E946ACC1091BF0D612ECC
:1046500085E0782E710E97E7892E99249394A12CEA
:10466000B12C05E0011B84E0F82EF11A83E0E82E5E
:10467000E11A82E0D82ED11A24EF222E332433946B
:10468000412C512C81E0C82EC11A11113DC08091DE
:10469000C20D8823B9F080916402882361F0662DF1
:1046A000619581E09091C20D911180E024E045EB8D
:1046B00052E10E940CDF1F5F7112E7CF86E080930A
:1046C000C00D0BC08091000C882329F31092000CC0
:1046D0005ADD8091C10D8823F1F20F900F900F9059
:1046E0000F90DF91CF911F910F91FF90EF90DF908E
:1046F000CF90BF90AF909F908F907F906F905F9082
:104700004F903F902F900895113041F58091C20D48
:10471000813079F080916402882369F281E0909180
:10472000C20D913009F080E020E24AEA52E16C2D9E
:10473000C0CF8091000C882369F31092000C29826D
:104740003A824B825C82BE016F5F7F4F80EA0E949B
:10475000E5848091C10D8823E9F2BFCF123009F0C2
:1047600080C08091C20D823081F0809164028823E4
:1047700009F4A1CF81E09091C20D923009F080E060
:1047800020E24EE852E16D2D94CF8091000C8823F9
:1047900061F31092000C89829A82AB82BC82BE01C6
:1047A0006F5F7F4F88E70E94E5848091C10D882369
:1047B000E1F293CF8091C20D833081F08091640249
:1047C000882309F478CF81E09091C20D933009F0ED
:1047D00080E020E242E852E16E2D6BCF8091000C28
:1047E000882361F31092000C0E941F858091C10DF7
:1047F000882321F372CF8091C20D843081F08091A3
:104800006402882309F457CF81E09091C20D94305F
:1048100009F080E020E248E752E16F2D4ACF809115
:10482000000C882361F31092000C0E940585809192
:10483000C10D882321F351CF8091000C8823E9F02A
:104840001092000C89829A82AB82BC82BE016F5F9B
:104850007F4F8CE30E94E5848091C10D882369F02D
:104860003CCF133009F4A6CF143029F2153009F0EB
:1048700022CF8091C20D8530F9F2809164028823A5
:1048800009F419CF81E09091C20D953009F080E0D4
:1048900020E24DE952E1602F0CCFDF92EF92FF92C0
:1048A0000F931F93CF93DF930E946ACCC091BF0DEB
:1048B00085E0E82EEC0ED4E0DC1B13E01C1B02E0CC
:1048C0000C1B81E0F82EFC1ADC2ED194C1112DC0F6
:1048D0008091C20D8823B1F080916402882359F041
:1048E00081E09091C20D911180E024E045E655E110
:1048F0006D2D0E940CDFCF5FEC12E8CF85E0809336
:10490000C00D0BC08091000C882331F31092000C75
:104910003ADC8091C10D8823F9F2DF91CF911F918C
:104920000F91FF90EF90DF900895C13011F58091C5
:10493000C20D813079F0809164028823E1F281E038
:104940009091C20D913009F080E023E04EE555E1F1
:104950006F2DCFCF8091000C882369F31092000C4B
:1049600082E996E20E94E1E68091C10D882319F365
:10497000D4CFC23009F055C08091C20D823081F091
:1049800080916402882309F4B6CF81E09091C20D32
:10499000923009F080E023E047E555E1602FA9CF90
:1049A0008091000C882361F31092000C86E996E256
:1049B0000E94E1E68091C10D882311F3AECF809172
:1049C000C20D833081F080916402882309F493CF73
:1049D00081E09091C20D933009F080E023E040E542
:1049E00055E1612F86CF8091000C882361F31092EE
:1049F000000C8AE996E20E94E1E68091C10D8823CD
:104A000011F38BCF8091000C8823A1F01092000C41
:104A10008EE996E20E94E1E68091C10D882351F073
:104A20007CCFC33061F2C43009F065CF8091C20DF4
:104A3000843041F380916402882309F45CCF81E0E3
:104A40009091C20D943009F080E023E047E455E1F5
:104A50006D2F4FCFCF92DF92EF92FF920F931F9364
:104A6000CF93DF93182F7093330A6093320A0E941A
:104A70006ACCC091BF0D85E0D82EDC0E81E004E049
:104A80000C1B93E0F92EFC1A92E0E92EEC1AC82ECA
:104A9000CC1ADC2FD195113009F457C048F11230EF
:104AA00009F47CC0C111A1C08823D9F08091C20D46
:104AB0001816BCF04091C30D5091C40D6091C50D06
:104AC0007091C60D4F5F5F4F6F4F7F4F4093C30D87
:104AD0005093C40D6093C50D7093C60D8F5F809386
:104AE000C20D80916402882341F169E275E152C0F0
:104AF000C1117BC08823D9F08091C20D1816BCF07B
:104B00004091C30D5091C40D6091C50D7091C60DBB
:104B10004F5F5F4F6F4F7F4F4093C30D5093C40D56
:104B20006093C50D7093C60D8F5F8093C20D809109
:104B3000640260E475E181112DC080E0CF5FDC127A
:104B4000AACF85E08093C00D73C0C1114EC08823E9
:104B5000D9F08091C20D1816BCF04091C30D509150
:104B6000C40D6091C50D7091C60D4F5F5F4F6F4FC3
:104B70007F4F4093C30D5093C40D6093C50D709348
:104B8000C60D8F5F8093C20D8091640269E375E169
:104B9000882399F28D2F0E9474E6CFCFC11125C0D2
:104BA0008823D9F08091C20D1816BCF04091C30D36
:104BB0005091C40D6091C50D7091C60D4F5F5F4F50
:104BC0006F4F7F4F4093C30D5093C40D6093C50D3D
:104BD0007093C60D8F5F8093C20D8091640262E373
:104BE00075E1882309F4A9CFD5CFC13051F5809163
:104BF000C20D813091F080916402882309F49DCF29
:104C000081E09091C20D913009F080E024E04FE105
:104C100055E16C2D0E940CDF90CF8091000C882311
:104C200051F31092000CAFDA8091C10D882319F373
:104C3000DF91CF911F910F91FF90EF90DF90CF9078
:104C40000895C23009F055C08091C20D823081F0C4
:104C500080916402882309F470CF81E09091C20DA5
:104C6000923009F080E023E045E155E16E2DD2CF8E
:104C70008091000C882361F31092000C8EEA90E280
:104C80000E94E1E68091C10D882311F3D1CF80917C
:104C9000C20D833081F080916402882309F44DCFE6
:104CA00081E09091C20D933009F080E023E04CE068
:104CB00055E16F2DAFCF8091000C882361F31092E6
:104CC000000C83EB90E20E94E1E68091C10D882305
:104CD00011F3AECF8091000C8823A1F01092000C4C
:104CE00088EB90E20E94E1E68091C10D882351F0AB
:104CF0009FCFC33061F2C43009F01FCF8091C20D45
:104D0000843041F380916402882309F416CF81E056
:104D10009091C20D943009F080E023E041E055E12C
:104D2000602F78CF6AE17DE280E094CE66E17DE29B
:104D300081E090CE62E17DE282E08CCE6CE87BE2A5
:104D400083E088CEEF92FF920F931F93CF93DF9370
:104D50000E946ACCC091BF0D85E0F82EFC0ED3E016
:104D6000DC1B12E01C1B01E00C1BEC2EE194C111BA
:104D70002CC08091C20D8823B1F0809164028823F9
:104D800059F081E09091C20D911180E024E04BEC4C
:104D900053E16E2D0E940CDFCF5FFC12E8CF84E060
:104DA0008093C00D0BC08091000C882331F31092CA
:104DB000000CE9D98091C10D8823F9F2DF91CF91E0
:104DC0001F910F91FF90EF900895C13061F5809190
:104DD000C20D813079F0809164028823E9F281E08C
:104DE0009091C20D913009F080E020E24FEB53E149
:104DF000602FD0CF8091000C882369F31092000CB3
:104E00004091F8085091F9086091F0087091F1080C
:104E10008091F4089091F5080E94B0E08091C10D56
:104E20008823C9F2CBCFC23009F042C08091C20DB5
:104E3000823081F080916402882309F4ADCF81E053
:104E40009091C20D923009F080E020E24FE953E1E9
:104E5000612FA0CF8091000C882361F31092000C89
:104E60004091F8085091F9086FEF7FEF8091F408B6
:104E70009091F5080E94B0E08091C10D8823D1F295
:104E80009DCF8091000C8823D1F01092000C4091AE
:104E9000F8085091F9086091F0087091F10890E0DD
:104EA00080E00E94B0E08091C10D882341F086CF60
:104EB000C33009F071CF8091C20D833011F380911E
:104EC0006402882309F468CF81E09091C20D933089
:104ED00009F080E020E24FEA53E16D2F5BCFEF92C3
:104EE000FF920F931F93CF93DF930E946ACCC091E0
:104EF000BF0D85E0F82EFC0ED3E0DC1B12E01C1B7E
:104F000001E00C1BEC2EE194C1112CC08091C20D6C
:104F10008823B1F080916402882359F081E0909158
:104F2000C20D911180E024E04FEF53E16E2D0E94FD
:104F30000CDFCF5FFC12E8CF84E08093C00D0BC084
:104F40008091000C882331F31092000C1CD98091C1
:104F5000C10D8823F9F2DF91CF911F910F91FF903E
:104F6000EF900895C13061F58091C20D813079F0E4
:104F7000809164028823E9F281E09091C20D913022
:104F800009F080E020E243EF53E1602FD0CF809121
:104F9000000C882369F31092000C4091FA0850919C
:104FA000FB086091F2087091F3088091F6089091E7
:104FB000F7080E94B0E08091C10D8823C9F2CBCFE1
:104FC000C23009F042C08091C20D823081F08091E0
:104FD0006402882309F4ADCF81E09091C20D923034
:104FE00009F080E020E243ED53E1612FA0CF8091F2
:104FF000000C882361F31092000C4091FA08509144
:10500000FB086FEF7FEF8091F6089091F7080E9400
:10501000B0E08091C10D8823D1F29DCF8091000C2A
:105020008823D1F01092000C4091FA085091FB08AF
:105030006091F2087091F30890E080E00E94B0E087
:105040008091C10D882341F086CFC33009F071CF24
:105050008091C20D833011F380916402882309F49A
:1050600068CF81E09091C20D933009F080E020E29A
:1050700043EE53E16D2F5BCF2F923F924F925F92A1
:105080006F927F928F929F92AF92BF92CF92DF9258
:10509000EF92FF920F931F93CF93DF931F921F9274
:1050A000CDB7DEB70E946ACC8091BF0D8A83582E9F
:1050B0008B5F898326E2822E23E1922E87E0B82E31
:1050C000B51886E0A82EA51885E0782E751834E06E
:1050D000432E342C351843E0242E251882E0682E08
:1050E00065189A8191113EC08091C20D8823D1F03C
:1050F00080916402882361F0652D619581E0909133
:10510000C20D911180E024E04AE953E10E940CDFD6
:105110009A819F5F9A8389818913E3CF88E0809386
:10512000C00D0BC08091000C882311F31092000C6D
:105130002AD88091C10D8823D9F20F900F90DF916A
:10514000CF911F910F91FF90EF90DF90CF90BF9084
:10515000AF909F908F907F906F905F904F903F9017
:105160002F9008958A818130C9F58091C20D8130D8
:10517000F1F080916402882359F293E09F9387EEC7
:105180008F931F928AE08F9389E192E09F938F9390
:105190008EE893E19F938F9381E085198F9381E04F
:1051A0009091C20D913009F41AC180E018C180912C
:1051B000000C8823F1F21092000C10E000E027EEC2
:1051C00033E04AE050E069E172E084E993E10E9453
:1051D000C3CC8091C10D882361F2AFCF9A81923008
:1051E00009F07AC18091C20D823031F18091640260
:1051F000882309F48DCF84E49AE19F938F931F92C3
:1052000084E68F931F921F928AE29AE09F938F9376
:1052100086E793E19F938F936F9281E09091C20D07
:10522000923009F080E08F930E9453DD0FB6F8941E
:10523000DEBF0FBECDBF6CCF8091000C8823B1F2D2
:105240001092000C81E08093C70D1092FB0B10921E
:10525000FC0B1092FD0B1092FE0B84E4C82E8AE129
:10526000D82EE12CF12C08EC12E420E030E0A9016A
:105270006AE27AE082E893E10E9424CD8091C10D38
:10528000882309F4B3CF59CF8091C20D8330F9F050
:1052900080916402882309F43BCF8CE09AE19F93CC
:1052A0008F9381E08F934F921F921F9280E290E143
:1052B0009F938F9388E693E19F938F932F9281E042
:1052C0009091C20D933009F446C080E044C08091B3
:1052D000000C8823E9F21092000C81E08093C70D46
:1052E0001092FB0B1092FC0B1092FD0B1092FE0B18
:1052F0000CE01AE124E031E050E040E060E270E1CF
:105300008FE693E10E94C3CC8091C10D882309F4FC
:10531000BFCF13CF8091C20D843009F18091640218
:10532000882309F4F5CE8BEC91E39F938F931F9222
:1053300087E88F931F921F9288EB9DE09F938F9336
:1053400080E693E19F938F933F9281E09091C20D0D
:10535000943009F0BACF8F930E943DDD67CF8091E2
:10536000000C8823D9F21092000C81E08093C70DC5
:105370001092FB0B1092FC0B1092FD0B1092FE0B87
:105380000BEC11E327E830E050E040E068EB7DE013
:1053900084E693E10E94C3CC8091C10D882309F477
:1053A000BDCFCBCE8091C20D8530E9F080916402F3
:1053B000882309F4ADCE1F928FEF8F931F921F9217
:1053C0008AEB9DE09F938F9388E493E19F938F9363
:1053D0007F9281E09091C20D953009F0E6CE8F93D7
:1053E0000E943DDD23CF8091000C8823F9F21092BA
:1053F000000C81E08093C70D1092FB0B1092FC0B08
:105400001092FD0B1092FE0B10E000E02FEF30E049
:1054100050E040E06AEB7DE084E593E10E94C3CC7C
:105420008091C10D882311F288CE8091C20D863003
:10543000D1F080916402882309F46ACE1F928FEF25
:105440008F931F921F928CEB9DE09F938F9380E32D
:1054500093E19F938F93AF9281E09091C20D96302C
:1054600009F0A3CEBCCF8091000C882311F31092D9
:10547000000C81E08093C70D1092FB0B1092FC0B87
:105480001092FD0B1092FE0B10E000E02FEF30E0C9
:1054900050E040E06CEB7DE08CE393E10E94C3CCF4
:1054A0008091C10D882329F248CE8091000C882379
:1054B00039F11092000C0FEE17E127EE33E04AE0CD
:1054C00050E067E172E08BE293E10E94C3CC8091EF
:1054D000C10D8823A9F031CE9A81933009F4D4CE3E
:1054E000943009F417CF953009F45CCF963009F465
:1054F0009CCF973009F00CCE8091C20D8730A9F275
:1055000080916402882309F403CE8FEE97E19F9384
:105510008F9393E09F9387EE8F931F928AE08F93F0
:1055200087E192E09F938F939F928F92BF9281E049
:105530009091C20D973009F0C8CE0DCF9CE0899FA5
:10554000802D112491E0980F9093C80D2CE0280F26
:105550002093C90D4091601030E02E5F3F4F4217FD
:10556000130609F0A4F420916210921780F46623C8
:1055700041F08E5F0E9495D58091C90D8E5F0E948B
:1055800095D58091C90D1092631080936410089591
:10559000CF93DF931F92CDB7DEB780916510811155
:1055A00005C081E0809365100E94CBD360912E10DE
:1055B00070912F1019829E012F5F3F4F4FE08CE2B8
:1055C00090E10E948FD30F90DF91CF9108959FEFCC
:1055D000980F993020F40E948AE081E008950E949B
:1055E00098CAFBCF9FEF980F993010F40C948AE083
:1055F0000C9498CACF93DF93EC01FE018491882329
:1056000019F0F0DF2196F9CFDF91CF910895CF9374
:10561000DF93EC018991882311F0E4DFFBCFDF9168
:10562000CF910895AF92BF92CF92DF92EF92FF9207
:105630000F931F93CF93DF935C017B010E9466E67B
:10564000C82FC7010E94B9E604E110E0081B110948
:10565000DD24D394C017110619F014F082E0D82E7F
:1056600080912D1090E06D2D70E06F5F7F4F0F9453
:105670002705C62EC6E0C60F80916010C81788F1B6
:10568000209162104C2F4B50550B241715064CF1EE
:1056900010926310C0936410C5010E94D6CAD1E075
:1056A000E114F10499F08AE30E9498CA52E0D512FD
:1056B0001AC0CC0D80916010C81740F02091621084
:1056C0004C2F4B50550B241715067CF4DF91CF91CE
:1056D0001F910F91FF90EF90DF90CF90BF90AF9010
:1056E0000895D0E0DDCFDD2389F3802F880F800F70
:1056F000880F80936310C093641080E20E9498CA60
:10570000C701DF91CF911F910F91FF90EF90DF9034
:10571000CF90BF90AF907BCF8091000C1092000C87
:10572000882321F01092FA0B0C94C3206091C30DD2
:105730007091C40D8091C50D9091C60D61157105D4
:105740008105910561F10E940DFE20912E0A309194
:105750002F0A4091300A5091310A0E946CFE20912C
:10576000EC0D3091ED0D4091EE0D5091EF0D0F9439
:105770003F026093EC0D7093ED0D8093EE0D9093CE
:10578000EF0D83E00E940E1A81E080936402109274
:10579000C30D1092C40D1092C50D1092C60D8091CC
:1057A0006402882341F08CEE9DE00E94B6DABC01D1
:1057B00088EF94E137CF08953F924F925F926F92B6
:1057C0007F928F929F92AF92BF92CF92DF92EF9291
:1057D000FF920F931F93CF93DF9300D000D000D0A0
:1057E0001F92CDB7DEB79A878987362E8091000C3D
:1057F0001092000C8823E1F01092FA0B0E94C32053
:105800002A960FB6F894DEBF0FBECDBFDF91CF91C1
:105810001F910F91FF90EF90DF90CF90BF90AF90CE
:105820009F908F907F906F905F904F903F900895E2
:105830008091C30D9091C40DA091C50DB091C60D7E
:105840008D839E83AF83B887892B8A2B8B2B09F49A
:1058500054C094E0699F80011124F801E052F24F96
:10586000408051806280738080912702811183C0C3
:1058700020E030E04AE754E4C301B2010F943E0255
:105880004B015C0120E030E04AE754E4C301B2017F
:105890000F943F026B017C016D817E818F81988521
:1058A0000E940DFE20912E0A30912F0A4091300A5D
:1058B0005091310A0E946CFEA30192010F943F02A5
:1058C0002B013C018D819E81AF81B885B7FF94C0CB
:1058D000A5019401C301B2010E9407FE87FD84C0A7
:1058E000F801E052F24F4082518262827382832D2E
:1058F0000E940E1A81E0809364021092C30D1092F0
:10590000C40D1092C50D1092C60D809164028823BB
:1059100009F476CFA4E03A9EC0011124FC01E052C4
:10592000F24F8053924FDC012D913D914D915C914E
:1059300060817181828193810F943F0269837A83B0
:105940008B839C832DEC3CEC4CEC5DE360912E0A48
:1059500070912F0A8091300A9091310A0F9465045A
:1059600087FD5BC0CE0101960E94B6DABC01898535
:105970009A8558DE45CFA1E06A17A1F0B2E06B1717
:1059800011F18090D7089090D808A090D908B090D5
:10599000DA08C0901B02D0901C02E0901D02F0902B
:1059A0001E027ACF8090DB089090DC08A090DD0882
:1059B000B090DE08C0901F02D0902002E09021023B
:1059C000F090220269CF8090DF089090E008A090CC
:1059D000E108B090E208C0902302D0902402E09049
:1059E0002502F090260258CFF801E052F24F808253
:1059F0009182A282B3827BCFA7019601C301B2013B
:105A00000F94650418160CF06BCFF801E052F24FBA
:105A1000C082D182E282F3826ACFCE0101960E94D7
:105A200098CDA4CF62E081EF94E1C6CE61E08AEE2A
:105A300094E1C2CE60E083EE94E1BECECF92DF92DD
:105A4000EF92FF920F93CF93DF93982F862F6A01E7
:105A50007901692F73DD909160108091C90D8917CC
:105A600008F442C0909162108091C80D981708F414
:105A70003BC0C701002379F00E9466E6C82FD4E13D
:105A8000D81BF6018491882349F0A1DDD81BFFEFD4
:105A9000CF1ADF0AF6CF0E94B9E6F0CF8AE30E9460
:105AA00098CAD15010F080E2FACF8091C90D9C2F96
:105AB000990F990FC91BCC0FC058C09363108093E6
:105AC0006410C701002341F0DF91CF910F91FF9047
:105AD000EF90DF90CF908ECDDF91CF910F91FF901F
