:100000000C94E1150C9412160C9412160C94121602
:100010000C9412160C9412160C9412160C941216C0
:100020000C9412160C9412160C9412160C941216B0
:100030000C9412160C9412160C9412160C941216A0
:100040000C9412160C94803F0C9412160C941216F9
:100050000C9412160C9412160C94263C0C94C1B5F8
:100060000C9412160C94899D0C9412160C94121672
:100070000C9412160C9412160C9412160C94121660
:100080000C9412160C9412160C9412160C94121650
:100090000C9412160C9412160C9412160C94121640
:1000A0000C9412160C9412160C9412160C94121630
:1000B0000C9412160C9412160C9412160C94121620
:1000C0000C9412160C9412160C9412160C94121610
:1000D0000C9412160C9412160C9412160C94121600
:1000E0000C941216084AD73B3BCE016E84BCBFFD70
:1000F000C12F3D6C74319ABD56833DDA3D00C77FF8
:1001000011BED9E4BB4C3E916BAAAABE0000008090
:100110003F05A84CCDB2D44EB93836A9020C50B91F
:10012000918688083CA6AAAA2ABE000000803F004B
:100130004E414E494E495459494E46CDCCCC3D0ACC
:10014000D7233C17B7D13877CC2B329595E6241FAF
:10015000B14F0A000020410000C84200401C462068
:10016000BCBE4CCA1B0E5AAEC59D74434F4D4D5577
:100170004E49434154494F4E0044525952554E0046
:100180004552524F525300494E464F004543484F47
:1001900000656E7175657565696E672022004B4953
:1001A0004C4C45442E200053544F505045442E2073
:1001B000005072696E7465722073746F707065643C
:1001C0002064756520746F206572726F72732E20C3
:1001D00046697820746865206572726F7220616E5E
:1001E0006420757365204D39393920746F2072652C
:1001F00073746172742E202854656D706572617419
:100200007572652069732072657365742E2053655D
:1002100074206974206166746572207265737461FC
:100220007274696E67290A004E6F20436865636BBC
:1002300073756D2077697468206C696E65206E75C2
:100240006D6265722C204C617374204C696E653A46
:1002500020004E6F20436865636B73756D2077696E
:100260007468206C696E65206E756D6265722C20F5
:100270004C617374204C696E653A20006368656355
:100280006B73756D206D69736D617463682C204CA0
:10029000617374204C696E653A20004C696E65206C
:1002A0004E756D626572206973206E6F74204C61AB
:1002B0007374204C696E65204E756D6265722B31CA
:1002C0002C204C617374204C696E653A20004D31CE
:1002D0003130004D33310053442072656164206534
:1002E00072726F720A00446F6E65207072696E746C
:1002F000696E672066696C650A0020496E76616CDC
:10030000696420657874727564657220000000006D
:10031000000000000000000000000048430000480A
:100320004300003443486F6D696E67206661696CF5
:1003300065640050726F7465637465642050696E03
:100340000A0020573A004520436F6F6C696E672E94
:100350002E2E00452048656174696E672E2E2E0092
:10036000205A3A0020593A0020436F756E74205885
:100370003A0020453A00205A3A0020593A00583AAB
:10038000003A004361703A0023646566696E652037
:1003900044454641554C545F4B64200023646566D8
:1003A000696E652044454641554C545F4B692000B9
:1003B00023646566696E652044454641554C545F2B
:1003C0004B702000504944204175746F74756E6500
:1003D0002066696E697368656421205075742074A5
:1003E0006865206C617374204B702C204B69206110
:1003F0006E64204B6420636F6E7374616E7473203F
:1004000066726F6D2062656C6F7720696E746F2005
:10041000436F6E66696775726174696F6E2E680AE4
:1004200000504944204175746F74756E6520666193
:10043000696C6564212074696D656F75740A004587
:100440003120544845524D414C2052554E41574160
:100450005900546865726D616C2052756E617761E8
:10046000790045312048656174696E67206661696D
:100470006C65640048656174696E67206661696CCB
:10048000656400504944204175746F74756E652031
:100490006661696C6564212054656D706572617474
:1004A00075726520746F6F20686967680A00204B59
:1004B000643A2000204B693A2000204B703A20001B
:1004C0000A20436C617373696320504944200A0019
:1004D0002054753A2000204B753A2000206D617839
:1004E0003A2000206D696E3A200020643A200020F6
:1004F000626961733A2000504944204175746F74F9
:10050000756E652073746172740A0050494420410D
:1005100075746F74756E65206661696C6564212001
:1005200054656D706572617475726520746F6F20AB
:10053000686967680A00504944204175746F747592
:100540006E65206661696C65642120426164206586
:1005500078747275646572206E756D6265720A00DA
:10056000486F6D6520257325732573206669727346
:1005700074002066697273740A005A0059005800AA
:10058000486F6D6520004F666673657473206170F7
:10059000706C696564004572723A20546F6F206612
:1005A00061722100546F6F206661722066726F6DF8
:1005B000207265666572656E636520706F696E7422
:1005C0000A0047322F4733206261642070617261F4
:1005D0006D65746572730A00536C6565702E2E2EFE
:1005E00000436C69636B20746F20726573756D6571
:1005F0002E2E2E004E6F206D6F76652E00456E6498
:100600002066696C65206C6973740A0042656769CD
:100610006E2066696C65206C6973740A00286E6FC1
:100620002066696C65290043757272656E74206678
:10063000696C653A20005344207072696E74696E6B
:1006400067206279746520004E6F742053442070D7
:1006500072696E74696E670A0044656C6574696FCF
:100660006E206661696C65642C2046696C653A2071
:100670000046696C652064656C657465643A0025A4
:1006800069730025696D2025697300256968202537
:10069000696D202569730025696420256968202516
:1006A000696D2025697300256979202569642025F5
:1006B00069682025696D20256973005072696E7420
:1006C0002074696D653A20006F6666008C018701B1
:1006D000800179016B0144454255473A004B494C32
:1006E0004C45442E20004D3131332053006F6B00B8
:1006F00020573A0042656420636F6F6C696E672E05
:100700002E2E004265642068656174696E672E2E26
:100710002E003344205072696E746572204F6666F5
:100720002E002C20002C2000544845524D414C5F97
:1007300050524F54454354494F4E004155544F5227
:1007400045504F52545F53445F53544154555300E6
:10075000454D455247454E43595F504152534552CE
:1007600000434153455F4C494748545F4252494713
:1007700048544E45535300544F47474C455F4C49EE
:100780004748545300534F4654574152455F504FCA
:10079000574552004255494C445F50455243454EDF
:1007A00054004C4556454C494E475F444154410026
:1007B0005A5F50524F4245004155544F4C455645A3
:1007C0004C005052494E545F4A4F420050524F47DE
:1007D00052455353004155544F5245504F52545F68
:1007E00054454D5000564F4C554D455452494300C9
:1007F000454550524F4D0053455249414C5F584F6B
:100800004E5F584F4646004649524D574152455F4C
:100810004E414D453A4D61726C696E20312E312E3C
:100820003920284769746875622920534F5552430F
:10083000455F434F44455F55524C3A68747470733A
:100840003A2F2F6769746875622E636F6D2F4D6143
:10085000726C696E4669726D776172652F4D617257
:100860006C696E2050524F544F434F4C5F56455267
:1008700053494F4E3A312E30204D414348494E4561
:100880005F545950453A3344205072696E74657212
:100890002045585452554445525F434F554E543AA3
:1008A0003120555549443A63656465326132662D9D
:1008B000343161322D343734382D396231322D6381
:1008C00035356336326633363766660A002F2F2099
:1008D000004D31343520533C696E6465783E206F9D
:1008E0007574206F662072616E67652028302D3127
:1008F000290A00205400205200416363656C657230
:100900006174696F6E3A205000205A0020590058D7
:100910000020204D61783A2000205A0020590058CC
:100920000020204D696E3A20004F6E20004F666611
:1009300000536F667420656E6473746F70733A2031
:100940000020466C6F773A2000000136372603FFFF
:10095000FFFF353C3D380EFFFFFF312E303E12FFCA
:10096000FFFFFF28FF0C080907FFFF1A1C18FFFFF5
:100970002A08440AFF4324221E2C496E76616C69C2
:10098000642065787472756465720A0020643A00A8
:1009900020693A0020703A0043290A0061626C65C0
:1009A0006420286D696E2074656D702000436F6C43
:1009B00064206578747275646573206172652000C7
:1009C0004E6F2063617365206C696768740A004527
:1009D0004550524F4D204F4B0A0041637469766574
:1009E0002045787472756465723A2000496E7661AC
:1009F0006C69642065787472756465720A0052656A
:100A000073656E643A20006F6B0020746F6F206C0A
:100A10006F6E6720657874727573696F6E2070727F
:100A20006576656E7465640A0020636F6C6420658A
:100A30007874727573696F6E2070726576656E7406
:100A400065640A00627573793A2070617573656434
:100A500020666F7220696E7075740A006275737912
:100A60003A2070617573656420666F7220757365D6
:100A7000720A00627573793A2070726F63657373DE
:100A8000696E670A004B494C4C45442E20004B4987
:100A90004C4C20636175736564206279204B494C2E
:100AA0004C20627574746F6E2F70696E0A004B492A
:100AB0004C4C45442E20004B494C4C2063617573CF
:100AC000656420627920746F6F206D75636820699A
:100AD0006E6163746976652074696D65202D20638D
:100AE000757272656E7420636F6D6D616E643A200D
:100AF00000506C65617365207265736574005052B7
:100B0000494E5445522048414C5445440050726966
:100B10006E7465722068616C7465642E206B696CFC
:100B20006C28292063616C6C6564210A0000000058
:100B300000000000000000000000004842000048E3
:100B40004200008040000000005761726E696E67CD
:100B50003A20486F6D696E672042756D7020446958
:100B60007669736F72203C20310A00020204000093
:100B7000A0400000A04000000040000048430000EA
:100B8000484300003443FFFFFF7C3C3E5E2B3D3F6B
:100B90002F5B5D3B2C2A225C004572726F722077BE
:100BA000726974696E6720746F20454550524F4DCD
:100BB000210A00454550524F4D20646174617369AC
:100BC0007A65206572726F722E0A00290A0020620F
:100BD000797465733B206372632000536574746994
:100BE0006E67732053746F726564202800290A00B1
:100BF0002062797465733B206372632000207374F4
:100C00006F7265642073657474696E6773207265B2
:100C100074726965766564202800202863616C63BE
:100C2000756C6174656429210A0020213D2000450E
:100C30004550524F4D20435243206D69736D61748E
:100C40006368202D202873746F726564292000204A
:100C500053697A653A2000496E6465783A2000202D
:100C60004D61726C696E3D563536290A002845453E
:100C700050524F4D3D00454550524F4D20766572C4
:100C800073696F6E206D69736D61746368200048CD
:100C9000617264636F6465642044656661756C7439
:100CA0002053657474696E6773204C6F616465646A
:100CB0000A00DC050000DC050000640000001027CD
:100CC000000000009643000096430000A040000092
:100CD000C8410000A0420000A0420000C84300003C
:100CE000BC4220286D6D29002044002049002020AE
:100CF0004D3330312050005049442073657474697D
:100D00006E67733A0A002046002042002048002007
:100D1000204D3134352053004D6174657269616C2A
:100D20002068656174757020706172616D657465AD
:100D300072733A0A00205A0020590020204D3230A8
:100D400036205800486F6D65206F66667365743A8B
:100D50000A00204500205A00205900205800205445
:100D60000020530020204D32303520510020453CDA
:100D70006D61785F655F6A65726B3E0020583C6DFF
:100D800061785F785F6A65726B3E20593C6D61786F
:100D90005F795F6A65726B3E205A3C6D61785F7A5D
:100DA0005F6A65726B3E00416476616E6365643AAA
:100DB00020513C6D696E5F7365676D656E745F741D
:100DC000696D655F75733E20533C6D696E5F666546
:100DD0006564726174653E20543C6D696E5F747227
:100DE0006176656C5F66656564726174653E00205E
:100DF000540020520020204D3230342050004163F6
:100E000063656C65726174696F6E2028756E6974B4
:100E1000732F7332293A20503C7072696E745F618F
:100E20006363656C3E20523C726574726163745FEB
:100E3000616363656C3E20543C74726176656C5FDF
:100E4000616363656C3E0A00204500205A0020590A
:100E50000020204D3230312058004D6178696D7589
:100E60006D20416363656C65726174696F6E2028E3
:100E7000756E6974732F7332293A0A002045002079
:100E80005A0020590020204D3230332058004D6147
:100E900078696D756D20666565647261746573202F
:100EA00028756E6974732F73293A0A002045002053
:100EB0005A0020590020204D3932205800537465C3
:100EC00070732070657220756E69743A0A00202074
:100ED0004D3230302044300A0020204D3230302056
:100EE00044002044697361626C65640A0046696C61
:100EF000616D656E742073657474696E67733A0012
:100F000020204D3134392043203B20556E697473C5
:100F100020696E2043656C736975730A0020204751
:100F20003231202020203B0054524947474552454A
:100F300044006F70656E003A20007A5F6D696E0044
:100F4000795F6D696E00785F6D696E005265706FD4
:100F50007274696E6720656E6473746F7020737449
:100F6000617475730A0024F4D43050C38E20C2A279
:100F70004017828B7011127A910D816CD90AA86189
:100F8000E108C7586607615143061E4B5D05C14520
:100F9000A7041A411104093D980371393103403601
:100FA000DB0265339102D4305402802E1D02632C83
:100FB000EE01752AC501B028A001102781018F25F7
:100FC00064012B244B01E0223401AC211F018D2050
:100FD0000D01801FFC00841EED00971DDF00B81C72
:100FE000D200E61BC600201BBC00641AB200B21976
:100FF000A8000A19A0006A189900D117910040179B
:101000008B00B516840031167E00B31579003A15B1
:101010007300C7146F0058146A00EE13660088133B
:10102000630025135E00C7125B006C125700151297
:101030005400C111510070114F0021114B00D61006
:1010400049008D1047004610440002104200C00FB6
:101050004000800F3E00420F3C00060F3B00CB0ECD
:101060003800930E37005C0E3500270E3400F30D68
:101070003200C10D3100900D3000600D2E00320D98
:101080002D00050D2C00D90C2B00AE0C2900850C71
:1010900029005C0C2700350C27000E0C2600E80BFD
:1010A0002400C40B2400A00B23007D0B23005A0B4B
:1010B0002100390B2100180B2000F80A1F00D90A63
:1010C0001E00BB0A1E009D0A1D00800A1D00630A47
:1010D0001C00470A1B002C0A1B00110A1A00F70902
:1010E0001A00DD091900C4091900AB091900920999
:1010F00017007B091800630917004C091600360910
:101100001600200916000A091500F5081500E00868
:101110001400CC081400B8081400A40814009008A7
:1011200013007D0812006B081300580812004608CF
:1011300012003408110023081100120811000108E0
:101140001100F0071000E0071000D0071000C007E2
:101150001000B0070F00A107100091070E008307D1
:101160000F0074070F0065070E0057070E004907B0
:101170000E003B070D002E070E0020070D00130781
:101180000D0006070D00F9060C00ED060D00E00647
:101190000C00D4060C00C8060C00BC060C00B006FF
:1011A0000C00A4060B0099060C008D060B008206AD
:1011B0000B0077060B006C060B0061060A00570651
:1011C0000B004C060A0042060A0038060A002E06EA
:1011D0000A0024060A001A060A001006090007067B
:1011E0000A00FD050900F4050900EB050900E20508
:1011F0000900D9050900D0050900C7050900BE0589
:101200000900B5050800AD050800A50509009C0505
:101210000800940508008C050800840508007C057A
:101220000800740508006C050700650508005D05E9
:101230000700560508004E05070047050700400552
:10124000080038050700310507002A0507002305B7
:1012500007001C050600160507000F050700080516
:10126000060002050700FB040600F5040700EE0473
:101270000600E8040600E2040700DB040600D504CB
:101280000600CF040600C9040600C3040600BD041E
:101290000600B7040600B1040500AC040600A6046D
:1012A0000600A00405009B040600950405009004B8
:1012B00006008A04050085040500800406007A04FF
:1012C000050075040500700405006B040500660444
:1012D0000500610405005C04050057040500520484
:1012E00005004D04050048040500430405003E04C4
:1012F00004003A04050035040500300404002C0401
:10130000050027040400230405001E0404001A0439
:10131000040016040500110404000D04040009046F
:1013200005000404040000040400FC030400F803A6
:101330000400F4030400F0030400EC030400E803D9
:101340000400E4030400E0030400DC030400D80309
:101350000400D4030400D0030400CC030400C80339
:101360000300C503030024F404D9201BC40C5C0E45
:101370009804C4095F0265077101F405F900FB04D4
:10138000B30048048700C1036900580355000303F4
:101390004500BE023A008402310053022A002902AD
:1013A000250004022000E4011C00C8011900AF015F
:1013B00017009801140084011300710110006101ED
:1013C000100051010E0043010D0036010B002B01EE
:1013D0000B0020010B00150109000C01090003019D
:1013E0000800FB000800F3000800EB000700E40021
:1013F0000600DE000600D8000600D2000600CC0081
:101400000500C7000500C2000500BD000400B900CA
:101410000400B5000400B1000400AD000400A90000
:101420000400A5000300A20003009F0004009B002D
:101430000300980003009500020093000300900051
:1014400003008D0002008B0003008800020086006C
:10145000020084000300810002007F0002007D0082
:1014600002007B0002007900020077000100760094
:1014700002007400020072000100710002006F009F
:1014800002006D0001006C0002006A0001006900AA
:1014900002006700010066000100650001006400B1
:1014A00002006200010061000100600001005F00B5
:1014B00002005D0001005C0001005B0001005A00B9
:1014C00001005900010058000100570001005600BA
:1014D00001005500010054000100530000005300BA
:1014E00001005200010051000100500001004F00B6
:1014F00001004E0000004E0001004D0001004C00B4
:1015000001004B0000004B0001004A0001004900AF
:1015100001004800000048000100470001004600AB
:1015200000004600010045000000450001004400A5
:10153000010043000000430001004200000042009F
:1015400001004100000041000100400001003F0097
:1015500000003F0001003E0000003E0001003D0091
:1015600000003D0001003C0000003C0000003C0089
:1015700001003B0000003B0001003A0000003A007F
:101580000100390000003900010038000000380077
:10159000000038000100370000003700010036006D
:1015A0000000360000003600010035000000350064
:1015B0000000350001003400000034000000340059
:1015C000010033000000330000003300010032004E
:1015D0000000320000003200010031000000310044
:1015E0000000310001003000000030000000300039
:1015F00001002F0000002F0000002F0000002F002E
:1016000001002E0000002E0000002E0001002D0021
:1016100000002D0000002D0000002D0001002C0016
:1016200000002C0000002C0000002C0001002B000A
:1016300000002B0000002B0000002B0001002A00FE
:1016400000002A0000002A0000002A0001002900F2
:1016500000002900000029000000290000002900E6
:1016600001002800000028000000280000002800D9
:1016700000002800010027000000270000002700CC
:1016800000002700000027000100260000002600BF
:1016900000002600000026000000260001002500B2
:1016A00000002500000025000000250000002500A6
:1016B0000000250001002400000024000000240098
:1016C000000024000000240001002300000023008B
:1016D000000023000000230000002300000023007E
:1016E0000000230001002200000022000000220070
:1016F0000000220000002200000022000100210062
:101700000000210000002100000021000000210055
:101710000000210000002100010020000000200046
:101720000000200000002000000020000000200039
:10173000000020000000200001001F0000001F002A
:1017400000001F0000001F0000001F0000001F001D
:1017500000001F0001001E0000001E0000001E000F
:1017600000001E000000043700001E290000511B6D
:1017700000005810000010090000CC04000078029E
:101780000000410100006265640A002C2073797337
:1017900074656D2073746F70706564212048656195
:1017A0007465725F49443A2000426564206865614F
:1017B00074696E67206661696C6564004865617470
:1017C000696E67206661696C656400453120486513
:1017D0006174696E67206661696C65640048656163
:1017E00074696E67206661696C65640070012C0124
:1017F00090012701B0012201C0011D01F001180173
:101800001002130130020E0160020901900204016E
:10181000C002FF000003FA004003F5008003F0005F
:10182000D003EB002004E6007004E100E004DC00DB
:101830004005D700C005D2004006CD00D006C80044
:101840008007C3003008BE00F008B900C009B4002A
:10185000B00AAF00B00BAA00D00CA500000EA0008B
:10186000500F9B00C01096005012910000148C0085
:10187000C0158700B0178200B0197D00D01B78001A
:10188000001E730040206E0090226900F024640066
:1018900040275F0090295A00E02B5500102E500081
:1018A00020304B0010324600E033410090353C00C0
:1018B0001037370070383200A0392D00B03A2800B8
:1018C000A03B2300603C1E00103D1900903D140019
:1018D000103E0F00703E0A00C03E0500003F0000B1
:1018E000403FFBFF803FF6FFC03FF1FF45312054F2
:1018F0004845524D414C2052554E415741590042A6
:10190000454420544845524D414C2052554E415774
:10191000415900546865726D616C2052756E617733
:101920006179004531204572723A204D4158544545
:101930004D50004572723A204D415854454D50204B
:10194000424544004D415854454D502074726967DA
:101950006765726564004531204572723A204D49D1
:101960004E54454D50004572723A204D494E5445F3
:101970004D5020424544004D494E54454D50207431
:101980007269676765726564004D38342058205964
:10199000205A204500202F002042403A0020403AA3
:1019A0000025753A2530327500253032753A2530DC
:1019B00032750025756420253032753A2530327530
:1019C00000202020202020005A0059002020202024
:1019D0000058000920000000000000000000000086
:1019E00000003FFFF00000000000000000000000C9
:1019F000003800700000000000000000000000003F
:101A000030FC30000000000000000000000000205A
:101A1000FC10000000000000000000000000207822
:101A20001000000000000000000000000020301046
:101A30000000000000000000000000002C00D03F6B
:101A4000C0000000000000002082002E31D07FE0A6
:101A5000000000000000001041002F7BD07FE0005C
:101A60000000000000001041002F7BD07FE000004C
:101A700000000000002082002E31D03FC000000096
:101A8000000000004104002C00D03FC00000000016
:101A90000000008208002030107FE00000000000FD
:101AA00000008208002078107FE0000000000000A5
:101AB0000041040020FC107FE00000000000000056
:101AC00020820030FC301F80000000000000000079
:101AD00000003800700F0000000000000000FFFF51
:101AE000C03FFFF0060000000000000000FFFFC044
:101AF0000000000000000000000000000000003FA7
:101B0000FFF00000000000000000000000003800AE
:101B1000700000000000000000000000003186306E
:101B200000000000000000000000000023871000FB
:101B30000000000000000000000000278790000067
:101B4000000000000000000000002F87D00000000F
:101B50000000000000000000002F03D03FC0000084
:101B600000000000002082002030107FE000000014
:101B7000000000001041002078107FE0000000000D
:101B80000000001041002078107FE00000000000FD
:101B900000002082002030103FC000000000000044
:101BA000004104002F03D03FC000000000000000EF
:101BB0008208002F87D07FE0000000000000008234
:101BC00008002787907FE00000000000000041042B
:101BD000002387107FE0000000000000002082004A
:101BE0003186301F80000000000000000000003837
:101BF00000700F0000000000000000FFFFC03FFF6A
:101C0000F0060000000000000000FFFFC000000020
:101C10003344205072696E74657220526561647934
:101C20002E005072696E74696E672E2E2E005072EF
:101C3000696E7420706175736564005072696E74AA
:101C40002061626F72746564005072696E74206600
:101C5000726F6D2053440053746F70207072696E00
:101C60007400526573756D65207072696E74004EF4
:101C70006F20534420636172640050617573652066
:101C80007072696E7400436F6E74726F6C00507284
:101C900065706172650054756E6500496E666F20EF
:101CA00073637265656E00466C6F7700466C6F7784
:101CB0000046616E20737065656420320046616E77
:101CC00020737065656420320046616E2073706514
:101CD000656420310046616E207370656564203153
:101CE0000042656400426564004E6F7A7A6C65005C
:101CF0004E6F7A7A6C650053706565640053706549
:101D00006564004D61696E0050726568656174209C
:101D1000504C4120456E64005072656865617420C6
:101D2000504C4120426564005072656865617420C2
:101D3000504C410050726570617265005072656868
:101D40006561742041425320456E6400507265689D
:101D50006561742041425320426564005072656899
:101D60006561742041425300507265706172650074
:101D70004D343238005072656865617420504C41B2
:101D800000436F6F6C646F776E00507265686561B9
:101D900074204142530044697361626C652073741E
:101DA000657070657273004D383400536574206837
:101DB0006F6D65206F666673657473004175746F2F
:101DC00020686F6D6500473238004D6F7665206181
:101DD000786973004D61696E004D6F76652058001B
:101DE0004D6F76652059004D6F7665205A00457815
:101DF000747275646572004D6F766520302E316D9A
:101E00006D004D6F766520316D6D004D6F766520EC
:101E100031306D6D004D6F766520617869730045D6
:101E200078747275646572004D6F7665205A004D46
:101E30006F76652059004D6F76652058004578749F
:101E40007275646572004D6F7665205A004D6F762D
:101E5000652059004D6F766520580050726570619D
:101E6000726500496E697469616C697A65204545DF
:101E700050524F4D00436F6E74726F6C0052657319
:101E8000746F7265206661696C73616665004C6F82
:101E900061642073657474696E677300496E697458
:101EA00069616C697A6520454550524F4D00537405
:101EB0006F72652073657474696E67730046696C30
:101EC000616D656E74004D6F74696F6E0054656D61
:101ED0007065726174757265004D61696E00507253
:101EE00065686561742041425320636F6E660050DF
:101EF00072656865617420504C4120636F6E6600A6
:101F00005049442D44005049442D44005049442D2B
:101F100049005049442D49005049442D5000504932
:101F2000442D50002008204661637400200820469C
:101F3000616374002008204D6178002008204D6105
:101F400078002008204D696E002008204D696E0041
:101F50004F6666004F6E20004175746F74656D703A
:101F60000046616E20737065656420320046616EC4
:101F700020737065656420320046616E2073706561
:101F8000656420310046616E2073706565642031A0
:101F90000042656400426564004E6F7A7A6C6500A9
:101FA0004E6F7A7A6C6500436F6E74726F6C00537B
:101FB000746F72652073657474696E67730042652F
:101FC0006400426564004E6F7A7A6C65004E6F7AE9
:101FD0007A6C650046616E207370656564004661C9
:101FE0006E2073706565640054656D706572617410
:101FF000757265005654726176206D696E00565494
:10200000726176206D696E00566D696E00566D695D
:102010006E00566D6178204500566D617820450050
:10202000566D6178205A00566D6178205A00566DC1
:102030006178205900566D6178205900566D61789D
:10204000205800566D61782058004D6F74696F6E8E
:1020500000416D6178204500416D61782045004167
:102060006D6178205A00416D6178205A00416D61A0
:1020700078205900416D6178205900416D617820C8
:102080005800416D6178205800412D747261766569
:102090006C00412D74726176656C00412D7265741F
:1020A0007261637400412D726574726163740041E2
:1020B0006363656C00416363656C004D6F74696FA9
:1020C0006E0056652D6A65726B0056652D6A6572E5
:1020D0006B00567A2D6A65726B00567A2D6A6572AE
:1020E0006B0056792D6A65726B0056792D6A6572A0
:1020F0006B0056782D6A65726B0056782D6A657292
:102100006B004D6F74696F6E004573746570732F4B
:102110006D6D004573746570732F6D6D005A737427
:102120006570732F6D6D005A73746570732F6D6DCC
:10213000005973746570732F6D6D005973746570F9
:10214000732F6D6D005873746570732F6D6D00582B
:1021500073746570732F6D6D004D6F74696F6E00D1
:1021600053746570732F6D6D004A65726B00416327
:1021700063656C65726174696F6E0056656C6F6340
:1021800069747900436F6E74726F6C0046696C2ECF
:10219000204469612E0046696C2E204469612E003E
:1021A0004F6666004F6E20004520696E206D6D33CE
:1021B00000436F6E74726F6C0043616E6E6F7420BB
:1021C000656E746572207375626469723A200002EC
:1021D0002E2E004D61696E00436172642072656D40
:1021E0006F766564004361726420696E7365727412
:1021F00065640000002100240027002A002D003023
:1022000000330001010000040107010A010000225F
:1022100000250028002B002E0031003400020100B0
:1022200000050108010B0100002000230026002901
:10223000002C002F003200000100000301060109FC
:102240000105050505070508080808020202020A3B
:102250000A08080404040401010101010101010349
:1022600003030303030303040707070C0C0C0C0C04
:102270000C0C0C0202020206060606060606060BF7
:102280000B0B0B0B0B0B0B0102102020080810206E
:1022900040102040800201020108040201010204F2
:1022A00008102040808040201008040201800402B1
:1022B0000180402010080402010804020101020408
:1022C0000810204080010204081020408000000A0D
:1022D0000B02090C0D0E08070304010000000000AA
:1022E00000000000000000000000000000000000EE
:1022F00000000000000000000012111000000000AB
:1023000000000000000000000000000000000000CD
:102310000000001FFFFFFFFFFFFF60000000000143
:10232000FF400000000000FF8000000000007F83ED
:10233000CF00000C303F87FF80000C301F86798073
:10234000000C000F8C30C7838C30E78C30CFC7CCAB
:1023500031F38C30DCECEC33B98C30D86C6C331945
:102360008C30D06C0C33198C30D86C0C33198C3009
:10237000DC6C0E3B198C30CF7C079F198C30C77CEE
:10238000038F194000000000000260000000000000
:10239000061FFFFFFFFFFFF82020506C616E6E6587
:1023A0007242756666657242797465733A200020E0
:1023B00046726565204D656D6F72793A2000436FF6
:1023C0006D70696C65643A20417072203131203241
:1023D0003032300A00207C20417574686F723A20D8
:1023E000286E6F6E652C2064656661756C74206361
:1023F0006F6E666967290A00323031382D30382D0A
:10240000303100204C6173742055706461746564D0
:102410003A2000312E312E390A004D61726C696EFE
:102420000020536F6674776172652052657365741E
:102430000A00205761746368646F67205265736592
:10244000740A002042726F776E206F757420526597
:102450007365740A002045787465726E616C205251
:10246000657365740A00506F77657255700A007362
:10247000746172740A006175746F25692E67006556
:1024800072726F722077726974696E6720746F2040
:1024900066696C650A00456E6473746F70732025FD
:1024A0006320256320256320256300205A3A0020FD
:1024B000593A0020583A00656E6473746F70732047
:1024C0006869743A2000446F6E6520736176696EA6
:1024D000672066696C652E0A004D3239004D323432
:1024E000004D323320257300556E6B6E6F776E2072
:1024F000636F6D6D616E643A20220020746F6F20EF
:102500006C6F6E6720657874727573696F6E20707A
:10251000726576656E7465640A0020636F6C642072
:10252000657874727573696F6E2070726576656E0A
:102530007465640A0053442063617264206F6B0AFF
:10254000006F70656E526F6F74206661696C6564B0
:102550000A00766F6C756D652E696E697420666110
:10256000696C65640A00534420696E697420666171
:10257000696C0A0057726974696E6720746F20660F
:10258000696C653A20006F70656E206661696C65E4
:10259000642C2046696C653A20006F70656E206679
:1025A00061696C65642C2046696C653A2000466957
:1025B0006C652073656C65637465640A00205369FB
:1025C0007A653A200046696C65206F70656E6564B7
:1025D0003A20002066696C653A2000646F696E6776
:1025E000006672657368004E6F772000454E442088
:1025F000535542524F5554494E450A002220706FA0
:1026000073002220706172656E743A220053554245
:10261000524F5554494E452043414C4C20746172F1
:102620006765743A22004B494C4C45442E20007497
:102630007279696E6720746F2063616C6C207375AA
:10264000622D67636F64652066696C6573207769C6
:10265000746820746F6F206D616E79206C6576658B
:102660006C732E204D4158206C6576656C20697323
:102670003A004572726F723A006F70656E20666143
:10268000696C65642C2046696C653A200043616E74
:102690006E6F74206F70656E20737562646972204E
:1026A000006563686F3A0000060900FE07019203A7
:1026B00021207FFF07FF07FF000000060000010741
:1026C00007060200808080808000800302020601ED
:1026D00005A0A00507070600005050F850F850501C
:1026E0000507070600002078A07028F020050707DE
:1026F000060000C0C8102040981805070706000013
:102700006090A040A89068020303060104C04080C6
:102710000307070601002040808080402003070750
:1027200006010080402020204080050505060001AC
:1027300020A870A8200505050600012020F820200B
:102740000203030602FFC04080050101060003F8F2
:10275000020202060200C0C00505050600010810BD
:1027600020408005070706000070888888888870E8
:1027700003070706010040C040404040E00507074E
:10278000060000708808708080F8050707060000C2
:10279000F81020100808F005070706000010305058
:1027A00090F81010050707060000F880F008088868
:1027B00070050707060000708080F08888700507A4
:1027C00007060000F8081020202020050707060053
:1027D0000070888870888870050707060000708878
:1027E0008878080870020505060200C0C000C0C055
:1027F0000206060602FFC0C000C0408004070706AC
:10280000000010204080402010050303060002F85D
:1028100000F80407070601008040201020408005D2
:10282000070706000070880810200020050707062B
:10283000000070880868A8A87005070706000070E7
:102840008888F8888888050707060000F08888F0DF
:102850008888F005070706000070888080808870EF
:10286000050707060000F08888888888F0050707B4
:10287000060000F88080F08080F805070706000059
:10288000F88080F08080800507070600007088804F
:10289000B8888870050707060000888888F8888847
:1028A00088010707060200808080808080800507FD
:1028B000070600003810101010906005070706008A
:1028C000008890A0C0A090880507070600008080BF
:1028D00080808080F805070706000088D8A88888CF
:1028E00088880507070600008888C8A89888880592
:1028F0000707060000708888888888700507070623
:102900000000F08888F080808005070706000070CE
:10291000888888A89068050707060000F08888F076
:10292000A09088050707060000788080700808F0EE
:10293000050707060000F8202020202020050707B3
:1029400006000088888888888870050707060000C8
:1029500088888888885020050707060000888888AE
:102960008888A850050707060000888850205088EE
:102970008805070706000088888850202020050762
:1029800007060000F80810204080F803070706013A
:1029900000E08080808080E0050505060001804021
:1029A000201008030707060100E02020202020E077
:1029B000050303060004205088050101060000F805
:1029C00002020206020580400505050600007008A7
:1029D0007888780507070600008080B0C88888F0EE
:1029E0000505050600007080808870050707060051
:1029F0000008086898888878050505060000708832
:102A0000F880700507070600003048E0404040406D
:102A10000506060600FF7088887808700507070617
:102A200000008080B0C888888801070706020080FF
:102A30000080808080800308080601FF200020209D
:102A40002020A040040707060000808090A0C0A0BE
:102A500090030707060100C04040404040E00505E4
:102A600005060000D0A8A8A8A8050505060000B026
:102A7000C888888805050506000070888888700564
:102A800006060600FFF08888F0808005060606002E
:102A9000FF788888780808050505060000B0C8801A
:102AA000808005050506000070807008F0040707A7
:102AB0000600004040E040404030050505060000AB
:102AC0008888889868050505060000888888502051
:102AD0000505050600008888A8A85005050506001C
:102AE0000088502050880506060600FF88888878F0
:102AF0000870050505060000F8102040F8030707D8
:102B000006010020404080404020010707060200E7
:102B1000808080808080800307070601008040401D
:102B20002040408005020206000268900000000676
:102B3000000000060900FE00000000000109000876
:102B4000FE000005080806000040F0C88888987854
:102B500010050808060000C0F88888888888F805ED
:102B600005050600012030F83020050808060000A1
:102B70002070F820202020E00509090600FF2070C1
:102B8000A8A8B8888870200509090600FFE080C061
:102B9000B0A8283028280509090600FFF8A8888869
:102BA000888888A8F8050A0A0600FE205050505070
:102BB00088A8A8887003030306000340A040B6D08D
:102BC0007FD011241FBECFEFD1E2DEBFCDBF00E02A
:102BD0000CBF13E0A0E0B2E0E0EEF4EC01E00BBFCC
:102BE00002C007900D92AE34B107D9F723E1AEE4ED
:102BF000B3E001C01D92A03BB207E1F715E1C0EEC2
:102C0000D5E100E006C021970109802FFE010E9456
:102C1000CBE1CF3DD10780E00807A9F70E949CD106
:102C20000C945FE20C9400002CEA35EC47E25EE382
:102C30006091C5057091C6058091C7059091C80542
:102C40000E94A0DF6093C9057093CA058093CB05ED
:102C50009093CC0508952CEA35EC47E25EE3609151
:102C6000CD057091CE058091CF059091D0050E9441
:102C700013DB6093D1057093D2058093D3059093B5
:102C8000D40508956091160270911702072E000C6A
:102C9000880B990B0E94B4DA2AE037ED43E25CE33B
:102CA0000E9413DB20919F053091A0054091A10562
:102CB0005091A2050E9413DB60934C0270934D0269
:102CC00080934E0290934F020895119890910201C3
:102CD00087FD90959170909300010000000091E0B5
:102CE0009A950000E9F7119A11989091020186FDDA
:102CF00090959170909300010000000091E09A95EA
:102D00000000E9F7119A11989091020185FD9095C4
:102D10009170909300010000000091E09A950000EE
:102D2000E9F7119A11989091020184FD90959170A4
:102D3000909300010000000091E09A950000E9F7EF
:102D4000119A11989091020183FD90959170909342
:102D500000010000000091E09A950000E9F7119A47
:102D600011989091020182FD9095917090930001CD
:102D70000000000091E09A950000E9F7119A11987F
:102D80009091020181FD9095917090930001000057
:102D9000000081E0982F9A950000E9F7119A1198A8
:102DA00090910201917090930001000000008A95BB
:102DB0000000E9F7119A089590916F00292F227071
:102DC00091FF05C090916F009D7F90936F0034E05C
:102DD000839FC0011124FC01E050FB4F40815181D1
:102DE000628173818C509B4FFC01408351836283CD
:102DF000738381E08093F304222329F080916F0094
:102E0000826080936F0008954F925F926F927F92DD
:102E10008F929F92AF92BF92EF92FF920F931F9368
:102E2000CF93DF93C2EED5E082E3E82E8DE0F82E5B
:102E30000CEE17E0412C512C3201439469917991A9
:102E400089919991F70181909190A190B1907F0122
:102E50000E94B2DAA50194010E9413DB0E940DE0EA
:102E6000F80161937193819391938F0146165706F0
:102E70006806790610F42B013C01F5E0C23FDF073C
:102E8000E9F66FEF7FEFCB01A30192010E9488DE8C
:102E90002093FC073093FD074093FE075093FF07F4
:102EA000DF91CF911F910F91FF90EF90BF90AF9066
:102EB0009F908F907F906F905F904F900895A4CFD8
:102EC000CF93DF9390916F00292F227091FF05C05F
:102ED00090916F009D7F90936F0094E0899FA00177
:102EE0001124FA01E050FB4F60817181828193814E
:102EF000222329F020916F00226020936F00EA01C5
:102F0000CC5DD74F0E94B4DA288139814A815B8138
:102F10000E9413DBDF91CF910895CF92DF92EF9261
:102F2000FF928091F605882309F457C0C090F205FE
:102F3000D090F305E090F405F090F50520E030E046
:102F4000A901C701B6010E94AEDA882309F445C081
:102F500020E030E040E05FE3C701B6010E9413DBF0
:102F60009B01AC010E9413DB2BED3FE049E450E4F0
:102F70000E9413DB9B01AC0160E070E080E89FE3FE
:102F80000E94A0DF6B017C01C0929F05D092A0053A
:102F9000E092A105F092A2056091160270911702CD
:102FA000072E000C880B990B0E94B4DA2AE037ED4B
:102FB00043E25CE30E9413DBA70196010E9413DB4E
:102FC00060934C0270934D0280934E0290934F0297
:102FD000FF90EF90DF90CF900895C12CD12C80E826
:102FE000E82E8FE3F82ED0CF80916F00982F92704B
:102FF00081FF05C080916F008D7F80936F001092DC
:103000001C0810921D0810921E0810921F08992388
:1030100029F080916F00826080936F0008950F9374
:103020001F938091BC0F9091BD0F891B8F7009F485
:1030300049C09091B90F992361F0833040F48FEF2C
:10304000890F29F08093B90F90E080E038C010928A
:10305000B90F8091BD0F2FE4829FC00111248F5BB7
:10306000974FFC01208120FDEFCF40911C0850912B
:103070001D0860911E0870911F08E55BFF4F0081DD
:10308000118122813381401B510B620B730B4093E2
:103090001C0850931D0860931E0870931F08209110
:1030A000BD0F2F5F2F702093BA0F3091BD0F20916D
:1030B000BB0F321304C02091BA0F2093BB0F1F9196
:1030C0000F91089591DFC0CFCF93DF938091A90432
:1030D00065994AC081608093A90490910301809111
:1030E000A90491FD43C082608093A9048091A90442
:1030F0004B993EC084608093A904C091E404C0FF52
:103100000FC08091AA0480FF0BC08091A90480FFAA
:1031100007C080912F06816080932F0680E04CDEEF
:10312000C1FF0FC08091AA0481FF0BC08091A90448
:1031300081FF07C080912F06826080932F0681E077
:103140003BDEC2FF17C08091AA0482FF13C08091AA
:10315000A90482FF0FC080912F06846080932F0600
:1031600082E0DF91CF9128CE8E7FB5CF8D7FBCCF0F
:103170008B7FC1CFDF91CF910895CF92DF92EF92F5
:10318000FF92CF93DF93EC01C090AF05D090B005D4
:10319000E090B105F090B205A701960168817981B0
:1031A0008A819B810E94AEDA87FF04C0C882D982DF
:1031B000EA82FB82C090B305D090B405E090B505DB
:1031C000F090B605A70196016C817D818E819F816B
:1031D0000E94AEDA87FF04C0CC82DD82EE82FF82DD
:1031E000C0901A02D0901B02E0901C02F0901D02C9
:1031F000A7019601688179818A819B810E94EAE01A
:10320000181624F4C882D982EA82FB82C0901E027A
:10321000D0901F02E0902002F0902102A7019601B9
:103220006C817D818E819F810E94EAE0181624F4D2
:10323000CC82DD82EE82FF82C090B705D090B805C7
:10324000E090B905F090BA05A701960168857985E7
:103250008A859B850E94AEDA87FF04C0C886D9861E
:10326000EA86FB86C0902202D0902302E0902402DE
:10327000F0902502A7019601688579858A859B854E
:103280000E94EAE0181624F4C886D986EA86FB86EE
:10329000DF91CF91FF90EF90DF90CF9008955F9AEC
:1032A00080910D068E7F80930D068A9A80910D067F
:1032B0008D7F80930D0680910801809581708093A9
:1032C0000601479A80910D068B7F80930D06129A16
:1032D0000895CF93DF9380E0F3DDC7E6D4E0688301
:1032E00079838A839B8381E0EBDD6C837D838E838E
:1032F0009F8382E0E5DD688779878A879B87DF91F6
:10330000CF9108950F931F93CF93DF9394E0899FFC
:10331000E00111248E010D551A4FFE01E25FF94FB5
:10332000DE01A557BB4F2D913D914D915C91608180
:103330007181828193810E94C4DEF8016083718370
:1033400082839383FE01E35FFC4F85919591A59164
:10335000B491FE01E155FA4F80839183A283B38338
:10336000FE01E75EFC4F85919591A591B491C65EF3
:10337000DD4F88839983AA83BB83DF91CF911F910F
:103380000F91089590912E06E92FF0E0E65DF94F38
:1033900080839F5F943040F490932E068091B10714
:1033A0008F5F8093B107089510922E06F7CF2FEB11
:1033B000280F2A3108F042C0E22FF0E08091DC03B0
:1033C0009091DD03A091DE03B091DF0304C0B695B8
:1033D000A795979587952A95D2F780FD02C08170B1
:1033E0000895EE53FC4FE081EE2329F18091DA0736
:1033F0009091DB07E80FF92FF11D808190ED980F78
:103400009A3030F08E3251F4818180538A3098F4B2
:10341000F0934F03E0934E0381E008958D3211F055
:103420008B3249F4818190ED980F9A3088F38E3277
:1034300011F48281EACFF0E0E0E0EACF80E0089585
:10344000B6DF882341F081E020914E0330914F0395
:10345000232B09F480E00895089590E080E008951A
:1034600080916504909166042FEF3FEF981751F01B
:10347000E92FF0E0EB51FC4F208130E09F5F9F7718
:1034800090936604C90108950C942AB4CF92DF92F8
:10349000EF92FF92CF93C82F0E941EB46B017C0164
:1034A00024EA30E74DE75FE36091BB057091BC050E
:1034B0008091BD059091BE050E94AEDA87FD18C0CF
:1034C0008AEF90E0A0E0B0E08C0D9D1DAE1DBF1D09
:1034D0008093F7059093F805A093F905B093FA054A
:1034E000C0933B02CF91FF90EF90DF90CF90089573
:1034F00080E090E0DC01E8CF0F931F9380919E0560
:10350000813019F50E941EB4009114051091150523
:103510002091160530911705601B710B820B930BE0
:1035200028EE33E040E050E00E9488DE6091100514
:10353000709111058091120590911305620F731F10
:10354000841F951F1F910F91089560911805709128
:10355000190580911A0590911B05D6CF80919E0583
:10356000813079F482E080939E050E941EB46093BE
:1035700018057093190580931A0590931B0581E037
:10358000089580E008950F931F93CF93DF93EC018C
:103590000E941EB40E811F812885398501151105F1
:1035A0002105310579F52C85222339F1EA85215051
:1035B0002C8721E02E0F2A873D85231301C01A8610
:1035C000F0E03196EE0FFF1FEE0FFF1FEC0FFD1F17
:1035D00002851385248535850A831B832C833D83CF
:1035E000600F711F811D911D6E837F83888799876E
:1035F0008C819D81892B09F0409ADF91CF911F9199
:103600000F910895601B710B820B930B97FDF5CF03
:1036100040981E821F8218861986EFCFCF93DF93C2
:1036200000D01F92CDB7DEB7882349F00E940BC3AC
:103630000F900F900F900F90DF91CF91089588EB2E
:1036400091E09C838B8384E190E09A838983BE011F
:103650006D5F7F4FCE0101960E9421A2E9CF9F921C
:10366000AF92BF92CF92DF92EF92FF920F931F9390
:10367000CF93DF935B01E9014A3009F4B2C04531D1
:1036800009F068C0DB011296ED91FC91F280C681D1
:10369000D78180910201809582708093000188E239
:1036A00090E00197F1F7EF2CE29420EFE22230E175
:1036B000932E9F0C48E2C42ED12C88EF06DBC60166
:1036C0000197F1F7BFE1BF1508F47BC08F2D80771C
:1036D0008068FBDA8E2DF9DAC6010197F1F780E8F0
:1036E000F4DA80E0F2DAC6010197F1F78AEFEDDA59
:1036F000C6010197F1F78E01005F1F4F8881807F1F
:10370000E4DA89918295807FE0DAC017D107B1F7BA
:10371000C6010197F1F7F394E0E1EE0EF910CDCF79
:1037200080910201827080930001D5011296CD91A3
:10373000DC91CE010E9421B6811129C2DF91CF9187
:103740001F910F91FF90EF90DF90CF90BF90AF90BF
:103750009F900895FB0102811381423309F4D2C185
:1037600008F4D6C1463409F4C3C1473409F4C6C1CC
:103770004B3329F589812B81D80112966C911297D0
:1037800013964C91213009F419C2233009F0E3C19A
:1037900038EF380F582F91E0431708F490E041E0DC
:1037A000531708F040E031E0561708F430E0592F85
:1037B000542B352309F0F7C1942309F0F4C181E0BB
:1037C000BDCF80EE8F0D8068807F7FDA8F2D829550
:1037D000807F7BDAC6010197F1F780E876DA80E82E
:1037E00081CF80910101826080930101809102016B
:1037F00082708093000180910101816080930101BA
:1038000080910201817080930001099A119A809140
:103810000201809582708093000188E290E0019718
:10382000F1F788E790E0CEE9DFE0FE013197F1F7AC
:103830000197D9F788EF49DA08E210E0C80101974B
:10384000F1F780E242DA80E040DAC8010197F1F74F
:1038500080E03BDA80E839DAC8010197F1F780E0CF
:1038600034DA80E132DAC8010197F1F7CE0101972D
:10387000F1F7CE010197F1F7CE010197F1F7CE01F3
:103880000197F1F7CE010197F1F7CE010197F1F71A
:10389000CE010197F1F7CE010197F1F7CE01019723
:1038A000F1F7CE010197F1F7CE010197F1F7CE01C3
:1038B0000197F1F7CE010197F1F7CE010197F1F7EA
:1038C0002197F1F780E201DA80E4FFD9C80101977E
:1038D000F1F780E2FAD980E6F8D9C8010197F1F74B
:1038E000F12CD0E0C1E08D2F80778068EED98F2D4C
:1038F000ECD9C8010197F1F780E8E7D980E0E5D974
:10390000C8010197F1F78AEFE0D9C8010197F1F7F3
:1039100090E2119880910201817080930001000073
:1039200000008C2F8A950000E9F7119A1198809178
:103930000201817080930001000000008C2F8A95A5
:103940000000E9F7119A119880910201817080932B
:103950000001000000008C2F8A950000E9F7119A01
:103960001198809102018170809300010000000095
:103970008C2F8A950000E9F7119A11988091020125
:10398000817080930001000000008C2F8A95000058
:10399000E9F7119A119880910201817080930001DA
:1039A000000000008C2F8A950000E9F7119A119809
:1039B00080910201817080930001000000008C2F33
:1039C0008A950000E9F7119A11988091020181709F
:1039D00080930001000000008C2F8A950000E9F719
:1039E000119A11988091020181708093000100006A
:1039F00000008C2F8A950000E9F7119A11988091A8
:103A00000201817080930001000000008C2F8A95D4
:103A10000000E9F7119A119880910201817080935A
:103A20000001000000008C2F8A950000E9F7119A30
:103A300011988091020181708093000100000000C4
:103A40008C2F8A950000E9F7119A11988091020154
:103A5000817080930001000000008C2F8A95000087
:103A6000E9F7119A11988091020181708093000109
:103A7000000000008C2F8A950000E9F7119A119838
:103A800080910201817080930001000000008C2F62
:103A90008A950000E9F7119A1198809102018170CE
:103AA00080930001000000008C2F8A950000E9F748
:103AB000119AF8013197F1F7915009F02ACF88EF68
:103AC00004D9C8010197F1F7DF5F80E1F80ED03229
:103AD00009F009CF80E0F9D880ECF7D8C801019748
:103AE000F1F78091020182708093000181E026CE7F
:103AF000D80115968C91888381E020CEF8018181D0
:103B00008883FACFB901C8010E940BB681E016CEB6
:103B1000443171F0473109F052CE1882F8018281A8
:103B20008983858181508A8383818B8381E006CE5E
:103B3000D80115964C91159750E0440F551F70E031
:103B400060E016968D919C910E94F7E1C8010E9459
:103B500037B681E0F3CD481708F431CE861708F464
:103B60002ECEFA80E12CD12C243070F41DC0BE0181
:103B7000C8010E940BB6898198819D0D98838E0D96
:103B80008983FF0C09F41BCEF7FEF6CFF0CF4D81F1
:103B900050E0440F551F70E060E08E819F810E94CD
:103BA000F7E181E0CBCDFA8030E0F901E552FD4F3D
:103BB000D08029523D4FF901E080E6CF58E0580F00
:103BC000382FE9CDDF92EF92FF920F931F93CF939F
:103BD000DF93EC01D62E1CAD0BAD7C0184E0E80E2A
:103BE000F11CE98DFA8DC7011995412F480F2D2D34
:103BF000602FC7010E94ACB89BAD890F8BAF81E0ED
:103C000090E0DF91CF911F910F91FF90EF90DF90A7
:103C100008958F929F92AF92BF92CF92DF92EF92D0
:103C2000FF920F93CF93DF931F92CDB7DEB76C0156
:103C30007B0149018091A7045B01A40EB51E882376
:103C4000A1F0F60180819181480F591F5183408373
:103C50000F90DF91CF910F91FF90EF90DF90CF9079
:103C6000BF90AF909F908F900895F60180819181D1
:103C70000E9463DE89839091A804992311F00023A8
:103C800011F0F7018083BE016F5F7F4FC4010E9476
:103C900068AFF60180819181019691838083FFEF67
:103CA000EF1AFF0AEA14FB0401F7D2CFCF92DF929A
:103CB000EF920F931F93CF93DF9300D01F92CDB756
:103CC000DEB7E090CB0719821A821B821C82CE01DC
:103CD00001966C0100E012E026E236E042E256E096
:103CE0006EE176E08AE196E00E9455A20F900F9077
:103CF0000F900F90DF91CF911F910F91EF90DF9078
:103D0000CF90089580914E0390914F03009731F02A
:103D10004AE050E070E060E00C94CAD760E070E0E8
:103D2000CB010895EFDF97FD0AC0ECDF6F3F71050F
:103D30008105910509F02CF4E5DF862F089580E0D8
:103D400008958FEF089580914E0390914F03892B32
:103D500039F0E8DF91E0811101C090E0892F0895EA
:103D600091E0FCCF80914E0390914F03009731F08A
:103D70004AE050E070E060E00C94F5D860E070E05C
:103D8000CB0108950F931F93CF9380914E03909191
:103D90004F030097E9F0FC018F01C1912C2F2F7D7B
:103DA00081F0C53411F0C536B9F7F801108270E022
:103DB00060E00E9475D6F801C083CF911F910F91EA
:103DC000089570E060E0CF911F910F910C9475D62B
:103DD00060E070E0CB01F1CF86E4E9DA8093D505AD
:103DE000882349F0CFDF60932702709328028093E5
:103DF000290290932A0283E5DADA882349F0C2DFA8
:103E000060932F02709330028093310290933202BC
:103E100082E4CDDA882349F0B5DF60932B027093FA
:103E20002C0280932D0290932E020895CF92DF9260
:103E3000EF92FF920F931F93CF93DF933FECC32E2C
:103E400032E0D32E47E9E42E44E0F42E0AE116E0F6
:103E5000D0E0C0E0F60181916F01A9DA882309F46E
:103E600054C090DFFE01E354FC4F2081211104C0B7
:103E70002091C1032223C9F1F801208131814281BF
:103E800053810E94C4DEF701608371838283938330
:103E90002196F4E0EF0EF11C0C5F1F4FC430D105EA
:103EA000C9F686E4CDDA8823B9F06CDF20E030E093
:103EB000A9010E94EAE018167CF464DF20E030E0FB
:103EC00040E752E40E94A0DF609300027093010279
:103ED0008093020290930302DF91CF911F910F9183
:103EE000FF90EF90DF90CF900895C33061F2FE0114
:103EF000EE0FFF1FEE0FFF1FED55FA4F20813181AE
:103F0000428153810E94C3DEBECFF801808191813E
:103F1000A281B381F70180839183A283B383B8CF59
:103F200080919E058230B1F09091EE0F992359F067
:103F30008091FF0F811104C082EF9FE00C9479A063
:103F40008FEF9FE0FBCF813041F080E19CE16FEF8C
:103F50000C945EC58EE29CE1FACF82E29CE1F7CF41
:103F6000809182058630D8F496E0899FF001112473
:103F7000E25AFA4F20914402309145023183208366
:103F80004091D0075091D1076091D2077091D3072B
:103F900042835383648375838F5F80938205089582
:103FA000209144023091450228173907D9F09093A7
:103FB0004502809344024093D0075093D107609309
:103FC000D2077093D3078552964321F41092FB05D4
:103FD0001092820582E08093520281E08093CE07A6
:103FE00010920006089521E02093FB056093BB0525
:103FF0007093BC058093BD059093BE0540E050E0F2
:10400000BA018091BF059091C005CACF60E070E011
:1040100080E291E4E8CF60E070E080E89FE3E3CFE6
:104020006DEC7CEC8CEC9DE3DECF40E050E0BA011F
:1040300085E296E3B5CFE0918205EE2381F0E15071
:10404000E093820586E0E89FF0011124E25AFA4FDE
:10405000428153816481758180819181A1CFE5CFB7
:104060003F924F925F926F927F928F929F92AF9208
:10407000BF92CF92DF92EF92FF920F931F93CF9355
:10408000DF930E949AAFC091CC075C2E65E0662E4C
:104090006C0ED1E073E0D72EE4EF8E2EEFE19E2E72
:1040A00086E0C82ECC1A85E0B82EBC1A84E0A82E73
:1040B000AC1A4D2C4C1A82E0782E7C1A3D2E3C1AFC
:1040C000C11138C08091CF078823B9F08091520286
:1040D000882361F0652D619581E09091CF07911162
:1040E00080E024E04AE450E20E943AC3CF5F6C12C1
:1040F000E7CF87E08093CD070BC08091010688232E
:1041000029F31092010697DF8091CE078823F1F200
:10411000DF91CF911F910F91FF90EF90DF90CF90A3
:10412000BF90AF909F908F907F906F905F904F90D7
:104130003F900895C13009F04DC08091CF07813084
:1041400021F180915202882389F2DF9287EE8F93CA
:104150001F92DF938CE098E09F938F938CE390E223
:104160009F938F933F9281E09091CF07913009F018
:1041700080E08F930E946CC18DB79EB70A960FB6F0
:10418000F8949EBF0FBE8DBFB1CF809101068823EA
:10419000C1F210920106C093D4071092FC05109250
:1041A000FD051092FE051092FF05E12C10ECF12E9A
:1041B00009E714E420E030E040E85FE36CE078E0F9
:1041C00083E490E20E9454B08091CE07882309F4E2
:1041D000B8CF9ECFC23009F05AC18091CF0782304C
:1041E00029F180915202882309F480CFDF9287EE73
:1041F0008F931F92DF9380E198E09F938F938EE2DD
:1042000090E29F938F937F9281E09091CF079230BD
:1042100009F080E08F930E946CC18DB79EB70A961B
:104220000FB6F8949EBF0FBE8DBF60CF8091010680
:104230008823B9F210920106D093D4071092FC059E
:104240001092FD051092FE051092FF05E12C10EC76
:10425000F12E09E714E420E030E040E85FE360E19C
:1042600078E085E390E20E9454B08091CE078823E5
:1042700009F4B7CF4DCF8091CF07833029F18091DA
:104280005202882309F432CFDF9287EE8F931F9278
:10429000DF9384E198E09F938F9380E290E29F9375
:1042A0008F934F9281E09091CF07933009F080E097
:1042B0008F930E946CC18DB79EB70A960FB6F89483
:1042C0009EBF0FBE8DBF12CF809101068823B9F229
:1042D00010920106D093D4071092FC051092FD05B0
:1042E0001092FE051092FF05E12C10ECF12E09E76B
:1042F00014E420E030E040E85FE364E178E087E246
:1043000090E20E9454B08091CE07882309F4B7CF81
:10431000FFCE8091CF07843029F18091520288230B
:1043200009F4E4CEDF9287EE8F931F92DF9388E14A
:1043300098E09F938F9382E190E29F938F93AF9247
:1043400081E09091CF07943009F080E08F930E9434
:104350006CC18DB79EB70A960FB6F8949EBF0FBE7C
:104360008DBFC4CE809101068823B9F21092010658
:10437000D093D4071092FC051092FD051092FE0513
:104380001092FF05E12C10ECF12E09E714E420E077
:1043900030E040E85FE368E178E089E190E20E9484
:1043A00054B08091CE07882309F4B7CFB1CE809165
:1043B000CF07853029F180915202882309F496CEE7
:1043C000DF9287EE8F931F921F9288E398E09F936E
:1043D0008F9388E090E29F938F93BF9281E09091BA
:1043E000CF07953009F080E08F930E946CC18DB7A4
:1043F0009EB70A960FB6F8949EBF0FBE8DBF76CEBD
:10440000809101068823B9F210920106D093D40757
:104410001092FC051092FD051092FE051092FF050A
:10442000E12C10ECF12E09E714E420E030E0A901C2
:1044300068E378E08DE090E20E9454B08091CE076E
:10444000882309F4B8CF64CE80910106882379F1DE
:1044500010920106D093D4071092FC051092FD052E
:104460001092FE051092FF05E12C10ECF12E09E7E9
:1044700014E420E030E0A90164E378E08EEF9FE1EE
:104480000E9454B08091CE07882389F041CEC3307A
:1044900009F4F1CEC43009F43CCFC53009F487CF1C
:1044A000C63009F023CE8091CF07863069F2809123
:1044B0005202882309F41ACEDF9287EE8F931F925F
:1044C0001F9284E398E09F938F939F928F92CF9255
:1044D00081E09091CF07963009F080E08F930E94A1
:1044E0006CC18DB79EB70A960FB6F8949EBF0FBEEB
:1044F0008DBFFCCDDF92EF92FF920F931F93CF936E
:10450000DF930E949AAFC091CC0785E0E82EEC0EB5
:10451000D4E0DC1B13E01C1B02E00C1B81E0F82E36
:10452000FC1ADC2ED194C1112DC08091CF078823B5
:10453000B1F080915202882359F081E09091CF0729
:10454000911180E024E04BE55EE16D2D0E943AC3BD
:10455000CF5FEC12E8CF85E08093CD070BC0809150
:104560000106882331F31092010665DD8091CE07A4
:104570008823F9F2DF91CF911F910F91FF90EF9077
:10458000DF900895C13011F58091CF07813079F027
:10459000809152028823E1F281E09091CF0791301F
:1045A00009F080E023E044E55EE16F2DCFCF8091FC
:1045B0000106882369F3109201068FEB94E20E94B2
:1045C000EDC88091CE07882319F3D4CFC23009F00B
:1045D00055C08091CF07823081F0809152028823AC
:1045E00009F4B6CF81E09091CF07923009F080E0D6
:1045F00023E04DE45EE1602FA9CF8091010688237E
:1046000061F31092010683EC94E20E94EDC8809160
:10461000CE07882311F3AECF8091CF07833081F08E
:1046200080915202882309F493CF81E09091CF07C3
:10463000933009F080E023E046E45EE1612F86CF0D
:1046400080910106882361F31092010687EC94E2C1
:104650000E94EDC88091CE07882311F38BCF809103
:1046600001068823A1F0109201068BEC94E20E94CF
:10467000EDC88091CE07882351F07CCFC33061F222
:10468000C43009F065CF8091CF07843041F3809129
:104690005202882309F45CCF81E09091CF079430D7
:1046A00009F080E023E04DE35EE16D2F4FCFCF9224
:1046B000DF92EF92FF920F931F93CF93DF93182F08
:1046C0007093C0056093BF050E949AAFC091CC075C
:1046D00085E0D82EDC0E81E004E00C1B93E0F92E7F
:1046E000FC1A92E0E92EEC1AC82ECC1ADC2FD195D8
:1046F000113009F457C048F1123009F47CC0C111DF
:10470000A1C08823D9F08091CF071816BCF0409142
:10471000D0075091D1076091D2077091D3074F5FB6
:104720005F4F6F4F7F4F4093D0075093D1076093F7
:10473000D2077093D3078F5F8093CF078091520287
:10474000882341F16FE17EE152C0C1117BC0882313
:10475000D9F08091CF071816BCF04091D007509146
:10476000D1076091D2077091D3074F5F5F4F6F4FB2
:104770007F4F4093D0075093D1076093D207709337
:10478000D3078F5F8093CF078091520266E37EE16B
:1047900081112DC080E0CF5FDC12AACF85E080932D
:1047A000CD0773C0C1114EC08823D9F08091CF07C7
:1047B0001816BCF04091D0075091D1076091D207F4
:1047C0007091D3074F5F5F4F6F4F7F4F4093D0077C
:1047D0005093D1076093D2077093D3078F5F809374
:1047E000CF07809152026FE27EE1882399F28D2FEC
:1047F0000E9480C8CFCFC11125C08823D9F08091F5
:10480000CF071816BCF04091D0075091D1076091A6
:10481000D2077091D3074F5F5F4F6F4F7F4F409329
:10482000D0075093D1076093D2077093D3078F5F5F
:104830008093CF078091520268E27EE1882309F4D9
:10484000A9CFD5CFC13051F58091CF07813091F0FC
:1048500080915202882309F49DCF81E09091CF0787
:10486000913009F080E024E045E15EE16C2D0E948A
:104870003AC390CF80910106882351F3109201062C
:10488000DADB8091CE07882319F3DF91CF911F9156
:104890000F91FF90EF90DF90CF900895C23009F014
:1048A00055C08091CF07823081F0809152028823D9
:1048B00009F470CF81E09091CF07923009F080E049
:1048C00023E04BE05EE16E2DD2CF8091010688237C
:1048D00061F31092010686E090E20E94EDC880919B
:1048E000CE07882311F3D1CF8091CF07833081F099
:1048F00080915202882309F44DCF81E09091CF0737
:10490000933009F080E023E042E05EE16F2DAFCF0D
:1049100080910106882361F3109201068BE090E2FA
:104920000E94EDC88091CE07882311F3AECF80910D
:1049300001068823A1F01092010680E190E20E9416
:10494000EDC88091CE07882351F09FCFC33061F22C
:10495000C43009F01FCF8091CF07843041F380919C
:104960005202882309F416CF81E09091CF0794304A
:1049700009F080E023E047EF5DE1602F78CF66E14A
:104980007BE280E094CE62E17BE281E090CE6EE05B
:104990007BE282E08CCE68E879E283E088CEEF9219
:1049A000FF920F931F93CF93DF930E949AAFC09112
:1049B000CC0785E0F82EFC0ED3E0DC1B12E01C1BBC
:1049C00001E00C1BEC2EE194C1112CC08091CF07AB
:1049D0008823B1F080915202882359F081E09091B0
:1049E000CF07911180E024E044E35DE16E2D0E9449
:1049F0003AC3CF5FFC12E8CF84E08093CD070BC0B1
:104A000080910106882331F31092010614DB809116
:104A1000CE078823F9F2DF91CF911F910F91FF907C
:104A2000EF900895C13061F58091CF07813079F022
:104A3000809152028823E9F281E09091CF07913072
:104A400009F080E020E248E25DE1602FD0CF809164
:104A50000106882369F3109201064091DE0550910A
:104A6000DF056091D6057091D7058091DA059091A8
:104A7000DB050E94DEC48091CE078823C9F2CBCF2C
:104A8000C23009F042C08091CF07823081F080911E
:104A90005202882309F4ADCF81E09091CF07923084
:104AA00009F080E020E248E05DE1612FA0CF809135
:104AB0000106882361F3109201064091DE055091B2
:104AC000DF056FEF7FEF8091DA059091DB050E94A3
:104AD000DEC48091CE078823D1F29DCF809101065C
:104AE0008823D1F0109201064091DE055091DF0538
:104AF0006091D6057091D70590E080E00E94DEC4F9
:104B00008091CE07882341F086CFC33009F071CF62
:104B10008091CF07833011F380915202882309F4EA
:104B200068CF81E09091CF07933009F080E020E2D8
:104B300048E15DE16D2F5BCFEF92FF920F931F93E2
:104B4000CF93DF930E949AAFC091CC0785E0F82EF7
:104B5000FC0ED3E0DC1B12E01C1B01E00C1BEC2E56
:104B6000E194C1112CC08091CF078823B1F08091CE
:104B70005202882359F081E09091CF07911180E093
:104B800024E048E65DE16E2D0E943AC3CF5FFC123F
:104B9000E8CF84E08093CD070BC080910106882385
:104BA00031F31092010647DA8091CE078823F9F29B
:104BB000DF91CF911F910F91FF90EF900895C13039
:104BC00061F58091CF07813079F08091520288237E
:104BD000E9F281E09091CF07913009F080E020E286
:104BE0004CE55DE1602FD0CF80910106882369F309
:104BF000109201064091E0055091E1056091D805C1
:104C00007091D9058091DC059091DD050E94DEC48C
:104C10008091CE078823C9F2CBCFC23009F042C0C1
:104C20008091CF07823081F080915202882309F46D
:104C3000ADCF81E09091CF07923009F080E020E283
:104C40004CE35DE1612FA0CF80910106882361F3E1
:104C5000109201064091E0055091E1056FEF7FEF62
:104C60008091DC059091DD050E94DEC48091CE0725
:104C70008823D1F29DCF809101068823D1F0109234
:104C800001064091E0055091E1056091D8057091D1
:104C9000D90590E080E00E94DEC48091CE07882391
:104CA00041F086CFC33009F071CF8091CF078330B8
:104CB00011F380915202882309F468CF81E090912A
:104CC000CF07933009F080E020E24CE45DE16D2FE6
:104CD0005BCF4F925F926F927F928F929F92AF9233
:104CE000BF92CF92DF92EF92FF920F931F93CF93D9
:104CF000DF930E949AAFC091CC077C2E85E0882E6E
:104D00008C0E93E0F92E27EAA22E2CE1B22E86E03B
:104D1000E82EEC1AD1E085E0D82EDC1A34E0932E90
:104D2000692C6C1A5F2C5C1A82E0C82ECC1A4D2EAE
:104D30004C1AC11137C08091CF078823B9F08091F8
:104D40005202882361F0672D619581E09091CF0731
:104D5000911180E024E043E05DE10E943AC3CF5F1F
:104D60008C12E7CF87E08093CD070BC080910106BE
:104D7000882329F3109201065ED98091CE078823FB
:104D8000F1F2DF91CF911F910F91FF90EF90DF90A3
:104D9000CF90BF90AF909F908F907F906F905F90DB
:104DA0004F900895C13009F040C08091CF07813005
:104DB00029F180915202882391F2FF9287EE8F931E
:104DC0001F928AE08F9388E192E09F938F9387EF01
:104DD0009CE19F938F934F9281E09091CF07913008
:104DE00009F080E08F930E94A4C18DB79EB70A9608
:104DF0000FB6F8949EBF0FBE8DBFB1CF8091010654
:104E00008823B9F21092010610E000E027EE33E0AB
:104E10004AE050E068E172E08DEF9CE10E94F3AF60
:104E20008091CE07882329F2ACCFC23009F04AC165
:104E30008091CF07823041F180915202882309F49A
:104E40008ECF84E49AE19F938F93DF939F921F927A
:104E50001F9283E79FE09F938F9389EE9CE19F933E
:104E60008F93CF9281E09091CF07923009F080E04C
:104E70008F930E94A4C18DB79EB70C960FB6F8947D
:104E80009EBF0FBE8DBF6BCF809101068823A1F21C
:104E900010920106D093D4071092FC051092FD05E4
:104EA0001092FE051092FF0504E41AE124E031E0BF
:104EB00050E040E063E77FE080EF9CE10E94F3AFC9
:104EC0008091CE07882309F4B7CF5BCF8091CF07BD
:104ED000833049F180915202882309F440CF86EA59
:104EE0009CE39F938F931F9287E88F931F921F924B
:104EF00089EC97E09F938F9381EE9CE19F938F9332
:104F00005F9281E09091CF07933009F080E08F931A
:104F10000E94A4C18DB79EB70C960FB6F8949EBFA1
:104F20000FBE8DBF1CCF80910106882399F210928D
:104F30000106D093D4071092FC051092FD05109243
:104F4000FE051092FF0506EA1CE327E830E050E07A
:104F500040E069EC77E085EE9CE10E94F3AF809140
:104F6000CE07882309F4B6CF0CCF8091CF078430C9
:104F700029F180915202882309F4F1CE1F928FEF1C
:104F80008F931F921F928CE398E09F938F9389ECED
:104F90009CE19F938F936F9281E09091CF07943023
:104FA00009F080E08F930E94A4C18DB79EB70A9646
:104FB0000FB6F8949EBF0FBE8DBFD1CE8091010673
:104FC0008823B9F210920106D093D4071092FC0501
:104FD0001092FD051092FE051092FF0510E000E012
:104FE0002FEF30E050E040E06CE378E085ED9CE1AD
:104FF0000E94F3AF8091CE07882309F4BACFC1CEC7
:105000008091CF07853029F180915202882309F4DD
:10501000A6CE1F928FEF8F931F921F928EE398E080
:105020009F938F9381EB9CE19F938F93DF9281E01D
:105030009091CF07953009F080E08F930E94A4C132
:105040008DB79EB70A960FB6F8949EBF0FBE8DBF60
:1050500086CE809101068823B9F210920106D09382
:10506000D4071092FC051092FD051092FE051092D7
:10507000FF0510E000E02FEF30E050E040E06EE38D
:1050800078E08DEB9CE10E94F3AF8091CE078823FE
:1050900009F4BACF76CE80910106882319F11092D7
:1050A000010602E416E127EE33E04AE050E066E153
:1050B00072E08CEA9CE10E94F3AF8091CE078823D6
:1050C00089F05FCEC33009F401CFC43009F44DCF6D
:1050D000C53009F495CFC63009F041CE8091CF0795
:1050E0008630C9F280915202882309F438CE82E4D6
:1050F00096E19F938F93FF9287EE8F931F928AE0A2
:105100008F9386E192E09F938F93BF92AF92EF923D
:1051100081E09091CF07963009F080E08F930E9454
:10512000A4C18DB79EB70C960FB6F8949EBF0FBE64
:105130008DBF15CE9CE0899F802D112491E0980FA2
:105140009093D5072CE0280F2093D6074091B30FFA
:1051500030E02E5F3F4F4217130609F0A4F4209170
:10516000B50F921780F4662341F08E5F0E9444B819
:105170008091D6078E5F0E9444B88091D607109226
:10518000B60F8093B70F0895CF93DF931F92CDB7DB
:10519000DEB78091B80F811105C081E08093B80F10
:1051A0000E947AB66091810F7091820F19829E01E0
:1051B0002F5F3F4F4FE08FE79FE00E943EB60F907A
:1051C000DF91CF9108959FEF980F993020F40E94BE
:1051D000B8C481E008950E9440A1FBCF9FEF980FD3
:1051E000993010F40C94B8C40C9440A1CF93DF9381
:1051F000EC01FE018491882319F0F0DF2196F9CFAC
:10520000DF91CF910895CF93DF93EC0189918823AB
:1052100011F0E4DFFBCFDF91CF910895AF92BF9201
:10522000CF92DF92EF92FF920F931F93CF93DF9372
:105230005C017B010E9472C8C82FC7010E94C5C8CB
:1052400004E110E0081B1109DD24D394C0171106F6
:1052500019F014F082E0D82E8091800F90E06D2D2F
:1052600070E06F5F7F4F0E949CE1C62EC6E0C60FC4
:105270008091B30FC81788F12091B50F4C2F4B5078
:10528000550B241715064CF11092B60FC093B70FAB
:10529000C5010E947EA1D1E0E114F10499F08AE3F6
:1052A0000E9440A152E0D5121AC0CC0D8091B30FDC
:1052B000C81740F02091B50F4C2F4B50550B2417B9
:1052C00015067CF4DF91CF911F910F91FF90EF9025
:1052D000DF90CF90BF90AF900895D0E0DDCFDD2379
:1052E00089F3802F880F800F880F8093B60FC093AB
:1052F000B70F80E20E9440A1C701DF91CF911F91BB
:105300000F91FF90EF90DF90CF90BF90AF907BCF49
:105310008091010610920106882321F01092FB056E
:105320000C941B206091D0077091D1078091D20717
:105330009091D307611571058105910561F10E9476
:10534000B4DA2091BB053091BC054091BD05509168
:10535000BE050E9413DB209126063091270640915E
:105360002806509129060E94C4DE60932606709399
:105370002706809328069093290683E00E94461A08
:1053800081E0809352021092D0071092D1071092C0
:10539000D2071092D30780915202882341F086E20F
:1053A00096E00E94E5BEBC018EEE9DE137CF0895E8
:1053B0003F924F925F926F927F928F929F92AF92A5
:1053C000BF92CF92DF92EF92FF920F931F93CF93F2
:1053D000DF9300D000D000D01F92CDB7DEB79A8700
:1053E0008987362E80910106109201068823E1F00C
:1053F0001092FB050E941B202A960FB6F894DEBF80
:105400000FBECDBFDF91CF911F910F91FF90EF9015
:10541000DF90CF90BF90AF909F908F907F906F90D4
:105420005F904F903F9008958091D0079091D10761
:10543000A091D207B091D3078D839E83AF83B887A5
:10544000892B8A2B8B2B09F454C094E0699F80012F
:105450001124F801E65EF94F40805180628073802C
:1054600080912602811183C020E030E04AE754E4B5
:10547000C301B2010E94C3DE4B015C0120E030E0B9
:105480004AE754E4C301B2010E94C4DE6B017C010F
:105490006D817E818F8198850E94B4DA2091BB0551
:1054A0003091BC054091BD055091BE050E9413DBB3
:1054B000A30192010E94C4DE2B013C018D819E81DB
:1054C000AF81B885B7FF94C0A5019401C301B201B3
:1054D0000E94AEDA87FD84C0F801E65EF94F408293
:1054E000518262827382832D0E94461A81E08093EA
:1054F00052021092D0071092D1071092D207109248
:10550000D30780915202882309F476CFA4E03A9E13
:10551000C0011124FC01E65EF94F8D559A4FDC0164
:105520002D913D914D915C9160817181828193813A
:105530000E94C4DE69837A838B839C832DEC3CECD0
:105540004CEC5DE36091BB057091BC058091BD059D
:105550009091BE050E94EAE087FD5BC0CE010196F6
:105560000E94E5BEBC0189859A8558DE45CFA1E041
:105570006A17A1F0B2E06B1711F18090AF0590901F
:10558000B005A090B105B090B205C0901A02D090BD
:105590001B02E0901C02F0901D027ACF8090B305B0
:1055A0009090B405A090B505B090B605C0901E02CD
:1055B000D0901F02E0902002F090210269CF8090ED
:1055C000B7059090B805A090B905B090BA05C09005
:1055D0002202D0902302E0902402F090250258CFBE
:1055E000F801E65EF94F80829182A282B3827BCF7E
:1055F000A7019601C301B2010E94EAE018160CF05F
:105600006BCFF801E65EF94FC082D182E282F3826D
:105610006ACFCE0101960E94C5B0A4CF62E087EEAA
:105620009DE1C6CE61E080EE9DE1C2CE60E089EDF5
:105630009DE1BECECF92DF92EF92FF920F93CF9378
:10564000DF93982F862F6A017901692F73DD90917E
:10565000B30F8091D607891708F442C09091B50F17
:105660008091D507981708F43BC0C701002379F053
:105670000E9472C8C82FD4E1D81BF60184918823F8
:1056800049F0A1DDD81BFFEFCF1ADF0AF6CF0E9449
:10569000C5C8F0CF8AE30E9440A1D15010F080E24B
:1056A000FACF8091D6079C2F990F990FC91BCC0F69
:1056B000C058C093B60F8093B70FC701002341F0C5
:1056C000DF91CF910F91FF90EF90DF90CF908ECD33
:1056D000DF91CF910F91FF90EF90DF90CF9093CD1E
:1056E000DF91CF910F91FF90EF90DF90CF900895D1
:1056F0004F925F926F927F928F929F92AF92BF92E2
:10570000CF92DF92EF92FF920F931F93CF93DF938D
:105710000E949AAFC091CC0745E0642E6C0ED1E098
:105720005EE8C52E5AEBD52E67E9A62E6AE6B62EA0
:1057300084E0982E9C1A83E0882E8C1A82E0782EC2
:105740007C1A5D2E5C1A4C2E4194C11137C0809199
:10575000CF078823B1F080915202882359F081E06D
:105760009091CF07911180E024E049E551E2642D4A
:105770000E943AC3CF5F6C12E8CF85E08093CD07DB
:105780000CC080910106882331F3109201060E941B
:105790001B208091CE078823F1F2DF91CF911F91DA
:1057A0000F91FF90EF90DF90CF90BF90AF909F90C0
:1057B0008F907F906F905F904F900895C13009F067
:1057C00049C08091CF078130B1F080915202882387
:1057D00089F211E08091CF07813009F010E082E377
:1057E0009DE00E94CEB900E09C0145E451E2652DA8
:1057F000812F20DFBFCF80910106882331F31092E3
:105800000106C093D4071092FC051092FD0510927A
:10581000FE051092FF05E12C1CE3F12E0CE116E4CD
:1058200020E030E040EA50E462E37DE08FE491E282
:105830000E94D0C9D0924502C0924402B092C807DB
:10584000A092C7071092C6078091CE07882309F45B
:10585000BCCFA3CFC23009F0BEC08091CF07823049
:10586000A9F080915202882309F484CF11E080913D
:10587000CF07823009F010E086E39DE00E94CEB9A8
:1058800000E09C0141E351E2672DB2CF8091010617
:10589000882339F310920106D093D4071092FC05A7
:1058A0001092FD051092FE051092FF05E12C1CE3FD
:1058B000F12E0CE116E420E030E040EA50E466E32B
:1058C0007DE08BE391E20E94D0C9D0924502C09264
:1058D0004402B092C807A092C7071092C6078091F1
:1058E000CE07882309F4BDCF58CF8091CF078330EE
:1058F000A9F080915202882309F43CCF11E08091F5
:10590000CF07833009F010E08AE39DE00E94CEB912
:1059100000E09C014DE151E2682D6ACF80910106C3
:10592000882339F310920106D093D4071092FC0516
:105930001092FD051092FE051092FF05E12C1CE36C
:10594000F12E0CE116E420E030E040EA50E46AE396
:105950007DE087E291E20E94D0C9D0924502C092D8
:105960004402B092C807A092C7071092C607809160
:10597000CE07882309F4BDCF10CF8091010688237C
:10598000A1F110920106D093D4071092FC05109259
:10599000FD051092FE051092FF05E12C1CE3F12E8F
:1059A0000CE116E420E030E040EA50E46EE37DE0F4
:1059B00083E191E20E94D0C9D0924502C092440294
:1059C000B092C807A092C7071092C6078091CE0771
:1059D000882359F0E2CEC33009F487CFC43009F0F0
:1059E000C9CE8091CF07843041F280915202882342
:1059F00009F4C0CE11E08091CF07843009F010E0A7
:105A00008EE39DE00E94CEB900E09C0149E051E2A6
:105A1000692DEECE2F923F924F925F926F927F92BE
:105A20008F929F92AF92BF92CF92DF92EF92FF92AE
:105A30000F931F93CF93DF9300D01F92CDB7DEB7A4
:105A40000E949AAF8091CC078C838B5F898343E05F
:105A5000542E52ECC52E50E2D52E84E09C81891B39
:105A60008A836DEE662E6BEB762E852D891B8B83DC
:105A700072EEA72E70E2B72E82E0482E491AE2EFAE
:105A80008E2EE0E29E2E33243394391A292E21944F
:105A90009C81911140C08091CF078823C9F08091EB
:105AA0005202882359F081E09091CF07911180E054
:105AB00024E042E051E2622D0E943AC39C819F5F44
:105AC0009C8389818913E4CF85E08093CD070CC046
:105AD00080910106882319F3109201060E941B2071
